{
  "contractName": "ICO",
  "abi": [
    {
      "inputs": [
        {
          "internalType": "address payable",
          "name": "_deposit",
          "type": "address"
        }
      ],
      "stateMutability": "nonpayable",
      "type": "constructor"
    },
    {
      "anonymous": false,
      "inputs": [
        {
          "indexed": true,
          "internalType": "address",
          "name": "_tokenOwner",
          "type": "address"
        },
        {
          "indexed": true,
          "internalType": "address",
          "name": "_spender",
          "type": "address"
        },
        {
          "indexed": false,
          "internalType": "uint256",
          "name": "_tokens",
          "type": "uint256"
        }
      ],
      "name": "Approval",
      "type": "event"
    },
    {
      "anonymous": false,
      "inputs": [
        {
          "indexed": false,
          "internalType": "address",
          "name": "_investor",
          "type": "address"
        },
        {
          "indexed": false,
          "internalType": "uint256",
          "name": "_value",
          "type": "uint256"
        },
        {
          "indexed": false,
          "internalType": "uint256",
          "name": "_tokens",
          "type": "uint256"
        }
      ],
      "name": "Invest",
      "type": "event"
    },
    {
      "anonymous": false,
      "inputs": [
        {
          "indexed": true,
          "internalType": "address",
          "name": "_from",
          "type": "address"
        },
        {
          "indexed": true,
          "internalType": "address",
          "name": "_to",
          "type": "address"
        },
        {
          "indexed": false,
          "internalType": "uint256",
          "name": "_tokens",
          "type": "uint256"
        }
      ],
      "name": "Transfer",
      "type": "event"
    },
    {
      "inputs": [
        {
          "internalType": "address",
          "name": "_tokenOwner",
          "type": "address"
        },
        {
          "internalType": "address",
          "name": "_spender",
          "type": "address"
        }
      ],
      "name": "allowance",
      "outputs": [
        {
          "internalType": "uint256",
          "name": "remaining",
          "type": "uint256"
        }
      ],
      "stateMutability": "view",
      "type": "function"
    },
    {
      "inputs": [
        {
          "internalType": "address",
          "name": "_spender",
          "type": "address"
        },
        {
          "internalType": "uint256",
          "name": "_tokens",
          "type": "uint256"
        }
      ],
      "name": "approve",
      "outputs": [
        {
          "internalType": "bool",
          "name": "success",
          "type": "bool"
        }
      ],
      "stateMutability": "nonpayable",
      "type": "function"
    },
    {
      "inputs": [
        {
          "internalType": "address",
          "name": "_tokenOwner",
          "type": "address"
        }
      ],
      "name": "balanceOf",
      "outputs": [
        {
          "internalType": "uint256",
          "name": "balance",
          "type": "uint256"
        }
      ],
      "stateMutability": "view",
      "type": "function"
    },
    {
      "inputs": [],
      "name": "creator",
      "outputs": [
        {
          "internalType": "address",
          "name": "",
          "type": "address"
        }
      ],
      "stateMutability": "view",
      "type": "function"
    },
    {
      "inputs": [],
      "name": "decimals",
      "outputs": [
        {
          "internalType": "uint256",
          "name": "",
          "type": "uint256"
        }
      ],
      "stateMutability": "view",
      "type": "function"
    },
    {
      "inputs": [],
      "name": "deposit",
      "outputs": [
        {
          "internalType": "address payable",
          "name": "",
          "type": "address"
        }
      ],
      "stateMutability": "view",
      "type": "function"
    },
    {
      "inputs": [],
      "name": "goal",
      "outputs": [
        {
          "internalType": "uint256",
          "name": "",
          "type": "uint256"
        }
      ],
      "stateMutability": "view",
      "type": "function"
    },
    {
      "inputs": [],
      "name": "manager",
      "outputs": [
        {
          "internalType": "address",
          "name": "",
          "type": "address"
        }
      ],
      "stateMutability": "view",
      "type": "function"
    },
    {
      "inputs": [],
      "name": "maxInvestment",
      "outputs": [
        {
          "internalType": "uint256",
          "name": "",
          "type": "uint256"
        }
      ],
      "stateMutability": "view",
      "type": "function"
    },
    {
      "inputs": [],
      "name": "minInvestment",
      "outputs": [
        {
          "internalType": "uint256",
          "name": "",
          "type": "uint256"
        }
      ],
      "stateMutability": "view",
      "type": "function"
    },
    {
      "inputs": [],
      "name": "name",
      "outputs": [
        {
          "internalType": "string",
          "name": "",
          "type": "string"
        }
      ],
      "stateMutability": "view",
      "type": "function"
    },
    {
      "inputs": [],
      "name": "raisedAmount",
      "outputs": [
        {
          "internalType": "uint256",
          "name": "",
          "type": "uint256"
        }
      ],
      "stateMutability": "view",
      "type": "function"
    },
    {
      "inputs": [],
      "name": "saleEnd",
      "outputs": [
        {
          "internalType": "uint256",
          "name": "",
          "type": "uint256"
        }
      ],
      "stateMutability": "view",
      "type": "function"
    },
    {
      "inputs": [],
      "name": "saleStart",
      "outputs": [
        {
          "internalType": "uint256",
          "name": "",
          "type": "uint256"
        }
      ],
      "stateMutability": "view",
      "type": "function"
    },
    {
      "inputs": [
        {
          "internalType": "uint256",
          "name": "",
          "type": "uint256"
        }
      ],
      "name": "sales",
      "outputs": [
        {
          "internalType": "address payable",
          "name": "investor",
          "type": "address"
        },
        {
          "internalType": "uint256",
          "name": "quantity",
          "type": "uint256"
        }
      ],
      "stateMutability": "view",
      "type": "function"
    },
    {
      "inputs": [],
      "name": "symbol",
      "outputs": [
        {
          "internalType": "string",
          "name": "",
          "type": "string"
        }
      ],
      "stateMutability": "view",
      "type": "function"
    },
    {
      "inputs": [],
      "name": "tokenAddress",
      "outputs": [
        {
          "internalType": "address",
          "name": "",
          "type": "address"
        }
      ],
      "stateMutability": "view",
      "type": "function"
    },
    {
      "inputs": [],
      "name": "tokenPrice",
      "outputs": [
        {
          "internalType": "uint256",
          "name": "",
          "type": "uint256"
        }
      ],
      "stateMutability": "view",
      "type": "function"
    },
    {
      "inputs": [],
      "name": "tokenTradeStart",
      "outputs": [
        {
          "internalType": "uint256",
          "name": "",
          "type": "uint256"
        }
      ],
      "stateMutability": "view",
      "type": "function"
    },
    {
      "inputs": [],
      "name": "totalSupply",
      "outputs": [
        {
          "internalType": "uint256",
          "name": "",
          "type": "uint256"
        }
      ],
      "stateMutability": "view",
      "type": "function"
    },
    {
      "stateMutability": "payable",
      "type": "receive"
    },
    {
      "inputs": [
        {
          "internalType": "address",
          "name": "_investor",
          "type": "address"
        }
      ],
      "name": "whitelist",
      "outputs": [],
      "stateMutability": "nonpayable",
      "type": "function"
    },
    {
      "inputs": [
        {
          "internalType": "uint256",
          "name": "_duration",
          "type": "uint256"
        },
        {
          "internalType": "uint256",
          "name": "_lockupPeriod",
          "type": "uint256"
        }
      ],
      "name": "startICO",
      "outputs": [],
      "stateMutability": "nonpayable",
      "type": "function"
    },
    {
      "inputs": [],
      "name": "invest",
      "outputs": [
        {
          "internalType": "bool",
          "name": "success",
          "type": "bool"
        }
      ],
      "stateMutability": "payable",
      "type": "function"
    },
    {
      "inputs": [
        {
          "internalType": "address",
          "name": "_to",
          "type": "address"
        },
        {
          "internalType": "uint256",
          "name": "_tokens",
          "type": "uint256"
        }
      ],
      "name": "transfer",
      "outputs": [
        {
          "internalType": "bool",
          "name": "success",
          "type": "bool"
        }
      ],
      "stateMutability": "nonpayable",
      "type": "function"
    },
    {
      "inputs": [
        {
          "internalType": "address",
          "name": "_from",
          "type": "address"
        },
        {
          "internalType": "address",
          "name": "_to",
          "type": "address"
        },
        {
          "internalType": "uint256",
          "name": "_tokens",
          "type": "uint256"
        }
      ],
      "name": "transferFrom",
      "outputs": [
        {
          "internalType": "bool",
          "name": "success",
          "type": "bool"
        }
      ],
      "stateMutability": "nonpayable",
      "type": "function"
    },
    {
      "inputs": [],
      "name": "getCurrentState",
      "outputs": [
        {
          "internalType": "enum ICO.State",
          "name": "",
          "type": "uint8"
        }
      ],
      "stateMutability": "view",
      "type": "function"
    },
    {
      "inputs": [],
      "name": "stopICO",
      "outputs": [],
      "stateMutability": "nonpayable",
      "type": "function"
    },
    {
      "inputs": [],
      "name": "resumeICO",
      "outputs": [],
      "stateMutability": "nonpayable",
      "type": "function"
    },
    {
      "inputs": [
        {
          "internalType": "address payable",
          "name": "_newDeposit",
          "type": "address"
        }
      ],
      "name": "changeDepositAddress",
      "outputs": [],
      "stateMutability": "nonpayable",
      "type": "function"
    },
    {
      "inputs": [],
      "name": "burnTokens",
      "outputs": [
        {
          "internalType": "bool",
          "name": "success",
          "type": "bool"
        }
      ],
      "stateMutability": "nonpayable",
      "type": "function"
    }
  ],
  "bytecode": "0x608060405264174876e8006000556005600155662386f26fc10000600b5569010f0cf064dd59200000600c5567016345785d8a0000600d556802b5e3af16b1880000600e553480156200005157600080fd5b5060405162003d3c38038062003d3c83398181016040528101906200007791906200028c565b33600260006101000a81548173ffffffffffffffffffffffffffffffffffffffff021916908373ffffffffffffffffffffffffffffffffffffffff16021790555060005460036000600260009054906101000a900473ffffffffffffffffffffffffffffffffffffffff1673ffffffffffffffffffffffffffffffffffffffff1673ffffffffffffffffffffffffffffffffffffffff1681526020019081526020016000208190555033600560006101000a81548173ffffffffffffffffffffffffffffffffffffffff021916908373ffffffffffffffffffffffffffffffffffffffff16021790555080600660006101000a81548173ffffffffffffffffffffffffffffffffffffffff021916908373ffffffffffffffffffffffffffffffffffffffff1602179055506000601360006101000a81548160ff02191690836003811115620001ef577f4e487b7100000000000000000000000000000000000000000000000000000000600052602160045260246000fd5b0217905550604051620002029062000267565b604051809103906000f0801580156200021f573d6000803e3d6000fd5b50600760006101000a81548173ffffffffffffffffffffffffffffffffffffffff021916908373ffffffffffffffffffffffffffffffffffffffff1602179055505062000306565b610d568062002fe683390190565b6000815190506200028681620002ec565b92915050565b6000602082840312156200029f57600080fd5b6000620002af8482850162000275565b91505092915050565b6000620002c582620002cc565b9050919050565b600073ffffffffffffffffffffffffffffffffffffffff82169050919050565b620002f781620002b8565b81146200030357600080fd5b50565b612cd080620003166000396000f3fe6080604052600436106101d05760003560e01c806395d89b41116100f7578063b5f522f711610095578063cc9ba58311610064578063cc9ba58314610670578063d0e30db01461069b578063dd62ed3e146106c6578063e8b5e51f14610703576101e0565b8063b5f522f7146105c5578063c10b935814610603578063c59ee1dc1461062e578063c8e569a814610659576101e0565b80639cbd7da5116100d15780639cbd7da51461051b5780639d76ea5814610532578063a9059cbb1461055d578063ab0bcc411461059a576101e0565b806395d89b411461049e5780639b19251a146104c95780639c08d549146104f2576101e0565b8063313ce5671161016f5780636d58c88f1161013e5780636d58c88f146103e257806370a082311461040b5780637ff9b596146104485780638ac2c68014610473576101e0565b8063313ce56714610336578063378aa70114610361578063401938831461038c578063481c6a75146103b7576101e0565b806308003f78116101ab57806308003f7814610266578063095ea7b31461029157806318160ddd146102ce57806323b872dd146102f9576101e0565b80622e1316146101e557806302d05d3f1461021057806306fdde031461023b576101e0565b366101e0576101dd610721565b50005b600080fd5b3480156101f157600080fd5b506101fa610d6d565b60405161020791906129ff565b60405180910390f35b34801561021c57600080fd5b50610225610d73565b6040516102329190612791565b60405180910390f35b34801561024757600080fd5b50610250610d99565b60405161025d919061285d565b60405180910390f35b34801561027257600080fd5b5061027b610dd2565b6040516102889190612827565b60405180910390f35b34801561029d57600080fd5b506102b860048036038101906102b39190612285565b610feb565b6040516102c59190612827565b60405180910390f35b3480156102da57600080fd5b506102e3611123565b6040516102f091906129ff565b60405180910390f35b34801561030557600080fd5b50610320600480360381019061031b9190612236565b61112c565b60405161032d9190612827565b60405180910390f35b34801561034257600080fd5b5061034b611189565b60405161035891906129ff565b60405180910390f35b34801561036d57600080fd5b5061037661118f565b6040516103839190612842565b60405180910390f35b34801561039857600080fd5b506103a161126c565b6040516103ae91906129ff565b60405180910390f35b3480156103c357600080fd5b506103cc611272565b6040516103d99190612791565b60405180910390f35b3480156103ee57600080fd5b50610409600480360381019061040491906121d1565b611298565b005b34801561041757600080fd5b50610432600480360381019061042d91906121a8565b61136c565b60405161043f91906129ff565b60405180910390f35b34801561045457600080fd5b5061045d6113b5565b60405161046a91906129ff565b60405180910390f35b34801561047f57600080fd5b506104886113bb565b60405161049591906129ff565b60405180910390f35b3480156104aa57600080fd5b506104b36113c1565b6040516104c0919061285d565b60405180910390f35b3480156104d557600080fd5b506104f060048036038101906104eb91906121a8565b6113fa565b005b3480156104fe57600080fd5b5061051960048036038101906105149190612313565b6115a7565b005b34801561052757600080fd5b506105306117d4565b005b34801561053e57600080fd5b506105476119cf565b6040516105549190612791565b60405180910390f35b34801561056957600080fd5b50610584600480360381019061057f9190612285565b6119f5565b6040516105919190612827565b60405180910390f35b3480156105a657600080fd5b506105af611a50565b6040516105bc91906129ff565b60405180910390f35b3480156105d157600080fd5b506105ec60048036038101906105e791906122c1565b611a56565b6040516105fa9291906127c7565b60405180910390f35b34801561060f57600080fd5b50610618611aaa565b60405161062591906129ff565b60405180910390f35b34801561063a57600080fd5b50610643611ab0565b60405161065091906129ff565b60405180910390f35b34801561066557600080fd5b5061066e611ab6565b005b34801561067c57600080fd5b50610685611cb2565b60405161069291906129ff565b60405180910390f35b3480156106a757600080fd5b506106b0611cb8565b6040516106bd91906127ac565b60405180910390f35b3480156106d257600080fd5b506106ed60048036038101906106e891906121fa565b611cde565b6040516106fa91906129ff565b60405180910390f35b61070b610721565b6040516107189190612827565b60405180910390f35b600060011515600960003373ffffffffffffffffffffffffffffffffffffffff1673ffffffffffffffffffffffffffffffffffffffff16815260200190815260200160002060009054906101000a900460ff161515146107b6576040517f08c379a00000000000000000000000000000000000000000000000000000000081526004016107ad906128bf565b60405180910390fd5b6107be61118f565b601360006101000a81548160ff02191690836003811115610808577f4e487b7100000000000000000000000000000000000000000000000000000000600052602160045260246000fd5b021790555060016003811115610847577f4e487b7100000000000000000000000000000000000000000000000000000000600052602160045260246000fd5b601360009054906101000a900460ff16600381111561088f577f4e487b7100000000000000000000000000000000000000000000000000000000600052602160045260246000fd5b146108cf576040517f08c379a00000000000000000000000000000000000000000000000000000000081526004016108c69061287f565b60405180910390fd5b600d5434101580156108e35750600e543411155b610922576040517f08c379a0000000000000000000000000000000000000000000000000000000008152600401610919906129bf565b60405180910390fd5b600c54600f541115610969576040517f08c379a00000000000000000000000000000000000000000000000000000000081526004016109609061295f565b60405180910390fd5b34600f600082825461097b9190612a36565b9250508190555034600a60003373ffffffffffffffffffffffffffffffffffffffff1673ffffffffffffffffffffffffffffffffffffffff16815260200190815260200160002060008282546109d19190612a36565b92505081905550600e54600a60003373ffffffffffffffffffffffffffffffffffffffff1673ffffffffffffffffffffffffffffffffffffffff168152602001908152602001600020541115610a5c576040517f08c379a0000000000000000000000000000000000000000000000000000000008152600401610a53906128df565b60405180910390fd5b6000600b5434610a6c9190612a8c565b90506000600760009054906101000a900473ffffffffffffffffffffffffffffffffffffffff1673ffffffffffffffffffffffffffffffffffffffff166318160ddd6040518163ffffffff1660e01b815260040160206040518083038186803b158015610ad857600080fd5b505afa158015610aec573d6000803e3d6000fd5b505050506040513d601f19601f82011682018060405250810190610b1091906122ea565b905080821115610b49577f4e487b7100000000000000000000000000000000000000000000000000000000600052600160045260246000fd5b600860405180604001604052803373ffffffffffffffffffffffffffffffffffffffff16815260200184815250908060018154018082558091505060019003906000526020600020906002020160009091909190915060008201518160000160006101000a81548173ffffffffffffffffffffffffffffffffffffffff021916908373ffffffffffffffffffffffffffffffffffffffff16021790555060208201518160010155505081600360003373ffffffffffffffffffffffffffffffffffffffff1673ffffffffffffffffffffffffffffffffffffffff1681526020019081526020016000206000828254610c419190612a36565b925050819055508160036000600260009054906101000a900473ffffffffffffffffffffffffffffffffffffffff1673ffffffffffffffffffffffffffffffffffffffff1673ffffffffffffffffffffffffffffffffffffffff1681526020019081526020016000206000828254610cb99190612abd565b92505081905550600660009054906101000a900473ffffffffffffffffffffffffffffffffffffffff1673ffffffffffffffffffffffffffffffffffffffff166108fc349081150290604051600060405180830381858888f19350505050158015610d28573d6000803e3d6000fd5b507f4ae4bd7655e0d350876a23cd90c4227b13db560e34435c6a488150a9c844bf5f333484604051610d5c939291906127f0565b60405180910390a160019250505090565b600e5481565b600260009054906101000a900473ffffffffffffffffffffffffffffffffffffffff1681565b6040518060400160405280600b81526020017f5a72696e43696e436f696e00000000000000000000000000000000000000000081525081565b6000600560009054906101000a900473ffffffffffffffffffffffffffffffffffffffff1673ffffffffffffffffffffffffffffffffffffffff163373ffffffffffffffffffffffffffffffffffffffff1614610e64576040517f08c379a0000000000000000000000000000000000000000000000000000000008152600401610e5b9061299f565b60405180910390fd5b610e6c61118f565b601360006101000a81548160ff02191690836003811115610eb6577f4e487b7100000000000000000000000000000000000000000000000000000000600052602160045260246000fd5b021790555060026003811115610ef5577f4e487b7100000000000000000000000000000000000000000000000000000000600052602160045260246000fd5b601360009054906101000a900460ff166003811115610f3d577f4e487b7100000000000000000000000000000000000000000000000000000000600052602160045260246000fd5b14610f7d576040517f08c379a0000000000000000000000000000000000000000000000000000000008152600401610f74906128ff565b60405180910390fd5b600060036000600260009054906101000a900473ffffffffffffffffffffffffffffffffffffffff1673ffffffffffffffffffffffffffffffffffffffff1673ffffffffffffffffffffffffffffffffffffffff168152602001908152602001600020819055506001905090565b60003373ffffffffffffffffffffffffffffffffffffffff168373ffffffffffffffffffffffffffffffffffffffff16141561102657600080fd5b6000821161103357600080fd5b81600460003373ffffffffffffffffffffffffffffffffffffffff1673ffffffffffffffffffffffffffffffffffffffff16815260200190815260200160002060008573ffffffffffffffffffffffffffffffffffffffff1673ffffffffffffffffffffffffffffffffffffffff168152602001908152602001600020819055508273ffffffffffffffffffffffffffffffffffffffff163373ffffffffffffffffffffffffffffffffffffffff167f8c5be1e5ebec7d5bd14f71427d1e84f3dd0314c0f7b2291e5b200ac8c7c3b9258460405161111191906129ff565b60405180910390a36001905092915050565b60008054905090565b60006012544211611172576040517f08c379a00000000000000000000000000000000000000000000000000000000081526004016111699061293f565b60405180910390fd5b61117d848484611d65565b50600190509392505050565b60015481565b60006003808111156111ca577f4e487b7100000000000000000000000000000000000000000000000000000000600052602160045260246000fd5b601360009054906101000a900460ff166003811115611212577f4e487b7100000000000000000000000000000000000000000000000000000000600052602160045260246000fd5b14156112215760039050611269565b6010544211158061123457506000601154145b156112425760009050611269565b601054421015801561125657506011544211155b156112645760019050611269565b600290505b90565b600c5481565b600560009054906101000a900473ffffffffffffffffffffffffffffffffffffffff1681565b600560009054906101000a900473ffffffffffffffffffffffffffffffffffffffff1673ffffffffffffffffffffffffffffffffffffffff163373ffffffffffffffffffffffffffffffffffffffff1614611328576040517f08c379a000000000000000000000000000000000000000000000000000000000815260040161131f9061299f565b60405180910390fd5b80600660006101000a81548173ffffffffffffffffffffffffffffffffffffffff021916908373ffffffffffffffffffffffffffffffffffffffff16021790555050565b6000600360008373ffffffffffffffffffffffffffffffffffffffff1673ffffffffffffffffffffffffffffffffffffffff168152602001908152602001600020549050919050565b600b5481565b600d5481565b6040518060400160405280600381526020017f5a4343000000000000000000000000000000000000000000000000000000000081525081565b600560009054906101000a900473ffffffffffffffffffffffffffffffffffffffff1673ffffffffffffffffffffffffffffffffffffffff163373ffffffffffffffffffffffffffffffffffffffff161461148a576040517f08c379a00000000000000000000000000000000000000000000000000000000081526004016114819061299f565b60405180910390fd5b600060038111156114c4577f4e487b7100000000000000000000000000000000000000000000000000000000600052602160045260246000fd5b601360009054906101000a900460ff16600381111561150c577f4e487b7100000000000000000000000000000000000000000000000000000000600052602160045260246000fd5b1461154c576040517f08c379a00000000000000000000000000000000000000000000000000000000081526004016115439061297f565b60405180910390fd5b6001600960008373ffffffffffffffffffffffffffffffffffffffff1673ffffffffffffffffffffffffffffffffffffffff16815260200190815260200160002060006101000a81548160ff02191690831515021790555050565b600560009054906101000a900473ffffffffffffffffffffffffffffffffffffffff1673ffffffffffffffffffffffffffffffffffffffff163373ffffffffffffffffffffffffffffffffffffffff1614611637576040517f08c379a000000000000000000000000000000000000000000000000000000000815260040161162e9061299f565b60405180910390fd5b61163f61118f565b601360006101000a81548160ff02191690836003811115611689577f4e487b7100000000000000000000000000000000000000000000000000000000600052602160045260246000fd5b0217905550600060038111156116c8577f4e487b7100000000000000000000000000000000000000000000000000000000600052602160045260246000fd5b601360009054906101000a900460ff166003811115611710577f4e487b7100000000000000000000000000000000000000000000000000000000600052602160045260246000fd5b14611750576040517f08c379a0000000000000000000000000000000000000000000000000000000008152600401611747906129df565b60405180910390fd5b42601081905550816010546117659190612a36565b601181905550806011546117799190612a36565b6012819055506001601360006101000a81548160ff021916908360038111156117cb577f4e487b7100000000000000000000000000000000000000000000000000000000600052602160045260246000fd5b02179055505050565b600560009054906101000a900473ffffffffffffffffffffffffffffffffffffffff1673ffffffffffffffffffffffffffffffffffffffff163373ffffffffffffffffffffffffffffffffffffffff1614611864576040517f08c379a000000000000000000000000000000000000000000000000000000000815260040161185b9061299f565b60405180910390fd5b61186c61118f565b601360006101000a81548160ff021916908360038111156118b6577f4e487b7100000000000000000000000000000000000000000000000000000000600052602160045260246000fd5b02179055506003808111156118f4577f4e487b7100000000000000000000000000000000000000000000000000000000600052602160045260246000fd5b601360009054906101000a900460ff16600381111561193c577f4e487b7100000000000000000000000000000000000000000000000000000000600052602160045260246000fd5b1461197c576040517f08c379a00000000000000000000000000000000000000000000000000000000081526004016119739061291f565b60405180910390fd5b6001601360006101000a81548160ff021916908360038111156119c8577f4e487b7100000000000000000000000000000000000000000000000000000000600052602160045260246000fd5b0217905550565b600760009054906101000a900473ffffffffffffffffffffffffffffffffffffffff1681565b60006012544211611a3b576040517f08c379a0000000000000000000000000000000000000000000000000000000008152600401611a329061293f565b60405180910390fd5b611a458383611feb565b506001905092915050565b60105481565b60088181548110611a6657600080fd5b90600052602060002090600202016000915090508060000160009054906101000a900473ffffffffffffffffffffffffffffffffffffffff16908060010154905082565b60115481565b600f5481565b600560009054906101000a900473ffffffffffffffffffffffffffffffffffffffff1673ffffffffffffffffffffffffffffffffffffffff163373ffffffffffffffffffffffffffffffffffffffff1614611b46576040517f08c379a0000000000000000000000000000000000000000000000000000000008152600401611b3d9061299f565b60405180910390fd5b611b4e61118f565b601360006101000a81548160ff02191690836003811115611b98577f4e487b7100000000000000000000000000000000000000000000000000000000600052602160045260246000fd5b021790555060016003811115611bd7577f4e487b7100000000000000000000000000000000000000000000000000000000600052602160045260246000fd5b601360009054906101000a900460ff166003811115611c1f577f4e487b7100000000000000000000000000000000000000000000000000000000600052602160045260246000fd5b14611c5f576040517f08c379a0000000000000000000000000000000000000000000000000000000008152600401611c569061289f565b60405180910390fd5b6003601360006101000a81548160ff02191690836003811115611cab577f4e487b7100000000000000000000000000000000000000000000000000000000600052602160045260246000fd5b0217905550565b60125481565b600660009054906101000a900473ffffffffffffffffffffffffffffffffffffffff1681565b6000600460008473ffffffffffffffffffffffffffffffffffffffff1673ffffffffffffffffffffffffffffffffffffffff16815260200190815260200160002060008373ffffffffffffffffffffffffffffffffffffffff1673ffffffffffffffffffffffffffffffffffffffff16815260200190815260200160002054905092915050565b600081600360008673ffffffffffffffffffffffffffffffffffffffff1673ffffffffffffffffffffffffffffffffffffffff168152602001908152602001600020541015611db357600080fd5b81600460008673ffffffffffffffffffffffffffffffffffffffff1673ffffffffffffffffffffffffffffffffffffffff16815260200190815260200160002060003373ffffffffffffffffffffffffffffffffffffffff1673ffffffffffffffffffffffffffffffffffffffff168152602001908152602001600020541015611e3c57600080fd5b81600360008673ffffffffffffffffffffffffffffffffffffffff1673ffffffffffffffffffffffffffffffffffffffff1681526020019081526020016000206000828254611e8b9190612abd565b9250508190555081600360008573ffffffffffffffffffffffffffffffffffffffff1673ffffffffffffffffffffffffffffffffffffffff1681526020019081526020016000206000828254611ee19190612a36565b9250508190555081600460008673ffffffffffffffffffffffffffffffffffffffff1673ffffffffffffffffffffffffffffffffffffffff16815260200190815260200160002060003373ffffffffffffffffffffffffffffffffffffffff1673ffffffffffffffffffffffffffffffffffffffff1681526020019081526020016000206000828254611f749190612abd565b925050819055508273ffffffffffffffffffffffffffffffffffffffff163373ffffffffffffffffffffffffffffffffffffffff167fddf252ad1be2c89b69c2b068fc378daa952ba7f163c4a11628f55a4df523b3ef84604051611fd891906129ff565b60405180910390a3600190509392505050565b600081600360003373ffffffffffffffffffffffffffffffffffffffff1673ffffffffffffffffffffffffffffffffffffffff16815260200190815260200160002054101561203957600080fd5b81600360003373ffffffffffffffffffffffffffffffffffffffff1673ffffffffffffffffffffffffffffffffffffffff16815260200190815260200160002060008282546120889190612abd565b9250508190555081600360008573ffffffffffffffffffffffffffffffffffffffff1673ffffffffffffffffffffffffffffffffffffffff16815260200190815260200160002060008282546120de9190612a36565b925050819055508273ffffffffffffffffffffffffffffffffffffffff163373ffffffffffffffffffffffffffffffffffffffff167fddf252ad1be2c89b69c2b068fc378daa952ba7f163c4a11628f55a4df523b3ef8460405161214291906129ff565b60405180910390a36001905092915050565b60008135905061216381612c55565b92915050565b60008135905061217881612c6c565b92915050565b60008135905061218d81612c83565b92915050565b6000815190506121a281612c83565b92915050565b6000602082840312156121ba57600080fd5b60006121c884828501612154565b91505092915050565b6000602082840312156121e357600080fd5b60006121f184828501612169565b91505092915050565b6000806040838503121561220d57600080fd5b600061221b85828601612154565b925050602061222c85828601612154565b9150509250929050565b60008060006060848603121561224b57600080fd5b600061225986828701612154565b935050602061226a86828701612154565b925050604061227b8682870161217e565b9150509250925092565b6000806040838503121561229857600080fd5b60006122a685828601612154565b92505060206122b78582860161217e565b9150509250929050565b6000602082840312156122d357600080fd5b60006122e18482850161217e565b91505092915050565b6000602082840312156122fc57600080fd5b600061230a84828501612193565b91505092915050565b6000806040838503121561232657600080fd5b60006123348582860161217e565b92505060206123458582860161217e565b9150509250929050565b61235881612b03565b82525050565b61236781612af1565b82525050565b61237681612b15565b82525050565b61238581612b5e565b82525050565b600061239682612a1a565b6123a08185612a25565b93506123b0818560208601612b70565b6123b981612c30565b840191505092915050565b60006123d1601983612a25565b91507f4552524f523a2049434f206d75737420626520616374697665000000000000006000830152602082019050919050565b6000612411602d83612a25565b91507f4552524f523a2049434f20616c72656164792073746f70706564206f72206e6f60008301527f74207965742073746172746564000000000000000000000000000000000000006020830152604082019050919050565b6000612477602683612a25565b91507f4552524f523a204f6e6c7920617070726f76656420696e766573746f7273206160008301527f6c6c6f77656400000000000000000000000000000000000000000000000000006020830152604082019050919050565b60006124dd601e83612a25565b91507f4552524f523a204d617820696e766573746d656e7420657863656564656400006000830152602082019050919050565b600061251d601c83612a25565b91507f4552524f523a2049434f207374696c6c20696e2070726f6772657373000000006000830152602082019050919050565b600061255d602d83612a25565b91507f4552524f523a2049434f20616c72656164792072756e6e696e67206f72206e6f60008301527f74207965742073746172746564000000000000000000000000000000000000006020830152604082019050919050565b60006125c3602e83612a25565b91507f4552524f523a204c6f636b2d757020706572696f642c20746f6b656e73206e6f60008301527f742072656c6561736564207965740000000000000000000000000000000000006020830152604082019050919050565b6000612629601d83612a25565b91507f4552524f523a204e6f7420656e6f75676820746f6b656e73206c6566740000006000830152602082019050919050565b6000612669601383612a25565b91507f49434f20616c72656164792073746172746564000000000000000000000000006000830152602082019050919050565b60006126a9601b83612a25565b91507f4552524f523a204f6e6c79206d616e6167657220616c6c6f77656400000000006000830152602082019050919050565b60006126e9602183612a25565b91507f4552524f523a20416d6f756e7420746f6f206c6f77206f7220746f6f2068696760008301527f68000000000000000000000000000000000000000000000000000000000000006020830152604082019050919050565b600061274f601a83612a25565b91507f4552524f523a2049434f20616c726561647920737461727465640000000000006000830152602082019050919050565b61278b81612b54565b82525050565b60006020820190506127a6600083018461235e565b92915050565b60006020820190506127c1600083018461234f565b92915050565b60006040820190506127dc600083018561234f565b6127e96020830184612782565b9392505050565b6000606082019050612805600083018661235e565b6128126020830185612782565b61281f6040830184612782565b949350505050565b600060208201905061283c600083018461236d565b92915050565b6000602082019050612857600083018461237c565b92915050565b60006020820190508181036000830152612877818461238b565b905092915050565b60006020820190508181036000830152612898816123c4565b9050919050565b600060208201905081810360008301526128b881612404565b9050919050565b600060208201905081810360008301526128d88161246a565b9050919050565b600060208201905081810360008301526128f8816124d0565b9050919050565b6000602082019050818103600083015261291881612510565b9050919050565b6000602082019050818103600083015261293881612550565b9050919050565b60006020820190508181036000830152612958816125b6565b9050919050565b600060208201905081810360008301526129788161261c565b9050919050565b600060208201905081810360008301526129988161265c565b9050919050565b600060208201905081810360008301526129b88161269c565b9050919050565b600060208201905081810360008301526129d8816126dc565b9050919050565b600060208201905081810360008301526129f881612742565b9050919050565b6000602082019050612a146000830184612782565b92915050565b600081519050919050565b600082825260208201905092915050565b6000612a4182612b54565b9150612a4c83612b54565b9250827fffffffffffffffffffffffffffffffffffffffffffffffffffffffffffffffff03821115612a8157612a80612ba3565b5b828201905092915050565b6000612a9782612b54565b9150612aa283612b54565b925082612ab257612ab1612bd2565b5b828204905092915050565b6000612ac882612b54565b9150612ad383612b54565b925082821015612ae657612ae5612ba3565b5b828203905092915050565b6000612afc82612b34565b9050919050565b6000612b0e82612b34565b9050919050565b60008115159050919050565b6000819050612b2f82612c41565b919050565b600073ffffffffffffffffffffffffffffffffffffffff82169050919050565b6000819050919050565b6000612b6982612b21565b9050919050565b60005b83811015612b8e578082015181840152602081019050612b73565b83811115612b9d576000848401525b50505050565b7f4e487b7100000000000000000000000000000000000000000000000000000000600052601160045260246000fd5b7f4e487b7100000000000000000000000000000000000000000000000000000000600052601260045260246000fd5b7f4e487b7100000000000000000000000000000000000000000000000000000000600052602160045260246000fd5b6000601f19601f8301169050919050565b60048110612c5257612c51612c01565b5b50565b612c5e81612af1565b8114612c6957600080fd5b50565b612c7581612b03565b8114612c8057600080fd5b50565b612c8c81612b54565b8114612c9757600080fd5b5056fea26469706673582212201dbacda9eb594617f76b0e0c22e4a8dedd4eab7625d800dd8086ad58ad3f9bed64736f6c63430008000033608060405264174876e800600055600560015534801561001e57600080fd5b5033600260006101000a81548173ffffffffffffffffffffffffffffffffffffffff021916908373ffffffffffffffffffffffffffffffffffffffff16021790555060005460036000600260009054906101000a900473ffffffffffffffffffffffffffffffffffffffff1673ffffffffffffffffffffffffffffffffffffffff1673ffffffffffffffffffffffffffffffffffffffff16815260200190815260200160002081905550610c7f806100d76000396000f3fe608060405234801561001057600080fd5b506004361061009e5760003560e01c8063313ce56711610066578063313ce5671461015d57806370a082311461017b57806395d89b41146101ab578063a9059cbb146101c9578063dd62ed3e146101f95761009e565b806302d05d3f146100a357806306fdde03146100c1578063095ea7b3146100df57806318160ddd1461010f57806323b872dd1461012d575b600080fd5b6100ab610229565b6040516100b89190610a47565b60405180910390f35b6100c961024f565b6040516100d69190610a7d565b60405180910390f35b6100f960048036038101906100f491906109a5565b610288565b6040516101069190610a62565b60405180910390f35b6101176103c0565b6040516101249190610a9f565b60405180910390f35b61014760048036038101906101429190610956565b6103c9565b6040516101549190610a62565b60405180910390f35b61016561064f565b6040516101729190610a9f565b60405180910390f35b610195600480360381019061019091906108f1565b610655565b6040516101a29190610a9f565b60405180910390f35b6101b361069e565b6040516101c09190610a7d565b60405180910390f35b6101e360048036038101906101de91906109a5565b6106d7565b6040516101f09190610a62565b60405180910390f35b610213600480360381019061020e919061091a565b610840565b6040516102209190610a9f565b60405180910390f35b600260009054906101000a900473ffffffffffffffffffffffffffffffffffffffff1681565b6040518060400160405280600b81526020017f5a72696e43696e436f696e00000000000000000000000000000000000000000081525081565b60003373ffffffffffffffffffffffffffffffffffffffff168373ffffffffffffffffffffffffffffffffffffffff1614156102c357600080fd5b600082116102d057600080fd5b81600460003373ffffffffffffffffffffffffffffffffffffffff1673ffffffffffffffffffffffffffffffffffffffff16815260200190815260200160002060008573ffffffffffffffffffffffffffffffffffffffff1673ffffffffffffffffffffffffffffffffffffffff168152602001908152602001600020819055508273ffffffffffffffffffffffffffffffffffffffff163373ffffffffffffffffffffffffffffffffffffffff167f8c5be1e5ebec7d5bd14f71427d1e84f3dd0314c0f7b2291e5b200ac8c7c3b925846040516103ae9190610a9f565b60405180910390a36001905092915050565b60008054905090565b600081600360008673ffffffffffffffffffffffffffffffffffffffff1673ffffffffffffffffffffffffffffffffffffffff16815260200190815260200160002054101561041757600080fd5b81600460008673ffffffffffffffffffffffffffffffffffffffff1673ffffffffffffffffffffffffffffffffffffffff16815260200190815260200160002060003373ffffffffffffffffffffffffffffffffffffffff1673ffffffffffffffffffffffffffffffffffffffff1681526020019081526020016000205410156104a057600080fd5b81600360008673ffffffffffffffffffffffffffffffffffffffff1673ffffffffffffffffffffffffffffffffffffffff16815260200190815260200160002060008282546104ef9190610b2c565b9250508190555081600360008573ffffffffffffffffffffffffffffffffffffffff1673ffffffffffffffffffffffffffffffffffffffff16815260200190815260200160002060008282546105459190610ad6565b9250508190555081600460008673ffffffffffffffffffffffffffffffffffffffff1673ffffffffffffffffffffffffffffffffffffffff16815260200190815260200160002060003373ffffffffffffffffffffffffffffffffffffffff1673ffffffffffffffffffffffffffffffffffffffff16815260200190815260200160002060008282546105d89190610b2c565b925050819055508273ffffffffffffffffffffffffffffffffffffffff163373ffffffffffffffffffffffffffffffffffffffff167fddf252ad1be2c89b69c2b068fc378daa952ba7f163c4a11628f55a4df523b3ef8460405161063c9190610a9f565b60405180910390a3600190509392505050565b60015481565b6000600360008373ffffffffffffffffffffffffffffffffffffffff1673ffffffffffffffffffffffffffffffffffffffff168152602001908152602001600020549050919050565b6040518060400160405280600381526020017f5a4343000000000000000000000000000000000000000000000000000000000081525081565b600081600360003373ffffffffffffffffffffffffffffffffffffffff1673ffffffffffffffffffffffffffffffffffffffff16815260200190815260200160002054101561072557600080fd5b81600360003373ffffffffffffffffffffffffffffffffffffffff1673ffffffffffffffffffffffffffffffffffffffff16815260200190815260200160002060008282546107749190610b2c565b9250508190555081600360008573ffffffffffffffffffffffffffffffffffffffff1673ffffffffffffffffffffffffffffffffffffffff16815260200190815260200160002060008282546107ca9190610ad6565b925050819055508273ffffffffffffffffffffffffffffffffffffffff163373ffffffffffffffffffffffffffffffffffffffff167fddf252ad1be2c89b69c2b068fc378daa952ba7f163c4a11628f55a4df523b3ef8460405161082e9190610a9f565b60405180910390a36001905092915050565b6000600460008473ffffffffffffffffffffffffffffffffffffffff1673ffffffffffffffffffffffffffffffffffffffff16815260200190815260200160002060008373ffffffffffffffffffffffffffffffffffffffff1673ffffffffffffffffffffffffffffffffffffffff16815260200190815260200160002054905092915050565b6000813590506108d681610c1b565b92915050565b6000813590506108eb81610c32565b92915050565b60006020828403121561090357600080fd5b6000610911848285016108c7565b91505092915050565b6000806040838503121561092d57600080fd5b600061093b858286016108c7565b925050602061094c858286016108c7565b9150509250929050565b60008060006060848603121561096b57600080fd5b6000610979868287016108c7565b935050602061098a868287016108c7565b925050604061099b868287016108dc565b9150509250925092565b600080604083850312156109b857600080fd5b60006109c6858286016108c7565b92505060206109d7858286016108dc565b9150509250929050565b6109ea81610b60565b82525050565b6109f981610b72565b82525050565b6000610a0a82610aba565b610a148185610ac5565b9350610a24818560208601610ba8565b610a2d81610c0a565b840191505092915050565b610a4181610b9e565b82525050565b6000602082019050610a5c60008301846109e1565b92915050565b6000602082019050610a7760008301846109f0565b92915050565b60006020820190508181036000830152610a9781846109ff565b905092915050565b6000602082019050610ab46000830184610a38565b92915050565b600081519050919050565b600082825260208201905092915050565b6000610ae182610b9e565b9150610aec83610b9e565b9250827fffffffffffffffffffffffffffffffffffffffffffffffffffffffffffffffff03821115610b2157610b20610bdb565b5b828201905092915050565b6000610b3782610b9e565b9150610b4283610b9e565b925082821015610b5557610b54610bdb565b5b828203905092915050565b6000610b6b82610b7e565b9050919050565b60008115159050919050565b600073ffffffffffffffffffffffffffffffffffffffff82169050919050565b6000819050919050565b60005b83811015610bc6578082015181840152602081019050610bab565b83811115610bd5576000848401525b50505050565b7f4e487b7100000000000000000000000000000000000000000000000000000000600052601160045260246000fd5b6000601f19601f8301169050919050565b610c2481610b60565b8114610c2f57600080fd5b50565b610c3b81610b9e565b8114610c4657600080fd5b5056fea26469706673582212204a81e4798fad11e426fec0e47c17f05ef8134b34156f4e6372e87342513c35be64736f6c63430008000033",
  "immutableReferences": {},
  "source": "//SPDX-License-Identifier: GPL-3.0\r\n\r\npragma solidity ^0.8.0;\r\n\r\nimport \"./ZCC.sol\";\r\n\r\n\r\ncontract ICO is ZrinCinCoin {\r\n    \r\n    address public manager;\r\n    address payable public deposit;\r\n    address public tokenAddress;\r\n\r\n    struct Sale {\r\n        address payable investor;\r\n        uint quantity;\r\n    }\r\n\r\n    Sale[] public sales;\r\n\r\n    mapping(address => bool) private approvedInvestors;\r\n    mapping(address => uint) private investedAmount;\r\n\r\n    uint public tokenPrice = 0.01 ether;  \r\n    uint public goal = 5000 ether; // 50% of the total supply\r\n    uint public minInvestment = 0.1 ether;\r\n    uint public maxInvestment = 50 ether;\r\n    uint public raisedAmount; \r\n    uint public saleStart;\r\n    uint public saleEnd;   \r\n    uint public tokenTradeStart;\r\n    \r\n    enum State { NOT_STARTED, RUNNING, ENDED, SUSPENDED} \r\n    State ICOState;\r\n\r\n    modifier managerOnly() {\r\n        require(msg.sender == manager, \"ERROR: Only manager allowed\");\r\n        _;\r\n    }\r\n\r\n    modifier onlyInvestors() {\r\n        require(approvedInvestors[msg.sender] == true, \"ERROR: Only approved investors allowed\");\r\n        _;\r\n    }\r\n\r\n    constructor(address payable _deposit) {\r\n        manager = msg.sender;\r\n        deposit = _deposit;\r\n        ICOState = State.NOT_STARTED;\r\n        tokenAddress = address(new ZrinCinCoin());\r\n    }\r\n\r\n    receive() payable external {\r\n        invest();\r\n    }\r\n\r\n    // Only KYC-ed investors are allowed\r\n    function whitelist(address _investor) external managerOnly {\r\n        require(ICOState == State.NOT_STARTED, \"ICO already started\");\r\n        approvedInvestors[_investor] = true;\r\n    }\r\n\r\n    function startICO(uint _duration, uint _lockupPeriod) external managerOnly {\r\n       ICOState = getCurrentState(); \r\n       require(ICOState == State.NOT_STARTED, \"ERROR: ICO already started\");\r\n       saleStart = block.timestamp;\r\n       saleEnd = saleStart + _duration;\r\n       tokenTradeStart = saleEnd + _lockupPeriod;\r\n       ICOState = State.RUNNING;\r\n   }\r\n\r\n    event Invest(address _investor, uint _value, uint _tokens);\r\n\r\n    function invest() payable public onlyInvestors returns (bool success) { \r\n        ICOState = getCurrentState();\r\n        require(ICOState == State.RUNNING, \"ERROR: ICO must be active\");\r\n        require(msg.value >= minInvestment && msg.value <= maxInvestment, \"ERROR: Amount too low or too high\");\r\n\r\n        require(raisedAmount <= goal, \"ERROR: Not enough tokens left\");\r\n        raisedAmount += msg.value;\r\n        \r\n        investedAmount[msg.sender] += msg.value;\r\n        require(investedAmount[msg.sender] <= maxInvestment, \"ERROR: Max investment exceeded\");\r\n       \r\n        uint tokens = msg.value / tokenPrice;\r\n        uint totalSupply = ZrinCinCoin(tokenAddress).totalSupply();\r\n        assert(tokens <= totalSupply);\r\n\r\n        sales.push(Sale(payable(msg.sender), tokens));\r\n \r\n        balances[msg.sender] += tokens;\r\n        balances[creator] -= tokens; \r\n        deposit.transfer(msg.value); \r\n        \r\n        emit Invest(msg.sender, msg.value, tokens);\r\n        \r\n        return true;\r\n    }\r\n\r\n    function transfer(address _to, uint _tokens) public override returns (bool success) {\r\n        require(block.timestamp > tokenTradeStart, \"ERROR: Lock-up period, tokens not released yet\" );\r\n     \r\n        ZrinCinCoin.transfer(_to, _tokens); \r\n        \r\n        return true;\r\n    }\r\n\r\n    function transferFrom(address _from, address _to, uint _tokens) public override returns (bool success) {\r\n        require(block.timestamp > tokenTradeStart, \"ERROR: Lock-up period, tokens not released yet\"); \r\n       \r\n        ZrinCinCoin.transferFrom(_from, _to, _tokens); \r\n\r\n        return true;\r\n    }\r\n\r\n    function getCurrentState() public view returns (State) {\r\n        if (ICOState == State.SUSPENDED){\r\n            return State.SUSPENDED;\r\n        } else if (block.timestamp <= saleStart || saleEnd == 0) {\r\n            return State.NOT_STARTED;\r\n        } else if (block.timestamp >= saleStart && block.timestamp <= saleEnd) {\r\n            return State.RUNNING;\r\n        } else {\r\n            return State.ENDED;\r\n        }\r\n    }\r\n\r\n    function stopICO() external managerOnly {\r\n        ICOState = getCurrentState(); \r\n        require(ICOState == State.RUNNING, \"ERROR: ICO already stopped or not yet started\");\r\n        ICOState = State.SUSPENDED;\r\n    }\r\n\r\n     function resumeICO() external managerOnly {\r\n        ICOState = getCurrentState(); \r\n        require(ICOState == State.SUSPENDED, \"ERROR: ICO already running or not yet started\");\r\n        ICOState = State.RUNNING;\r\n    }\r\n\r\n    function changeDepositAddress(address payable _newDeposit) external managerOnly {\r\n        deposit = _newDeposit;\r\n    }\r\n\r\n     function burnTokens() external managerOnly returns (bool success) {\r\n        ICOState = getCurrentState();\r\n        require(ICOState == State.ENDED, \"ERROR: ICO still in progress\");\r\n        \r\n        balances[creator] = 0;\r\n        \r\n        return true;\r\n    }\r\n}",
  "sourcePath": "C:/Users/zrinc/Projects/ICO/contracts/ICO.sol",
  "compiler": {
    "name": "solc",
    "version": "0.8.0+commit.c7dfd78e.Emscripten.clang"
  },
  "schemaVersion": "3.4.1",
  "updatedAt": "2021-12-15T14:14:53.354Z",
  "devdoc": {
    "kind": "dev",
    "methods": {},
    "version": 1
  },
  "userdoc": {
    "kind": "user",
    "methods": {},
    "version": 1
  }
}