{
  "contractName": "ICO",
  "abi": [
    {
      "inputs": [
        {
          "internalType": "address payable",
          "name": "_deposit",
          "type": "address"
        }
      ],
      "stateMutability": "nonpayable",
      "type": "constructor"
    },
    {
      "anonymous": false,
      "inputs": [
        {
          "indexed": true,
          "internalType": "address",
          "name": "_tokenOwner",
          "type": "address"
        },
        {
          "indexed": true,
          "internalType": "address",
          "name": "_spender",
          "type": "address"
        },
        {
          "indexed": false,
          "internalType": "uint256",
          "name": "_tokens",
          "type": "uint256"
        }
      ],
      "name": "Approval",
      "type": "event"
    },
    {
      "anonymous": false,
      "inputs": [
        {
          "indexed": false,
          "internalType": "address",
          "name": "_investor",
          "type": "address"
        },
        {
          "indexed": false,
          "internalType": "uint256",
          "name": "_value",
          "type": "uint256"
        },
        {
          "indexed": false,
          "internalType": "uint256",
          "name": "_tokens",
          "type": "uint256"
        }
      ],
      "name": "Invest",
      "type": "event"
    },
    {
      "anonymous": false,
      "inputs": [
        {
          "indexed": true,
          "internalType": "address",
          "name": "_from",
          "type": "address"
        },
        {
          "indexed": true,
          "internalType": "address",
          "name": "_to",
          "type": "address"
        },
        {
          "indexed": false,
          "internalType": "uint256",
          "name": "_tokens",
          "type": "uint256"
        }
      ],
      "name": "Transfer",
      "type": "event"
    },
    {
      "inputs": [],
      "name": "ICOState",
      "outputs": [
        {
          "internalType": "enum ICO.State",
          "name": "",
          "type": "uint8"
        }
      ],
      "stateMutability": "view",
      "type": "function",
      "constant": true
    },
    {
      "inputs": [
        {
          "internalType": "address",
          "name": "_tokenOwner",
          "type": "address"
        },
        {
          "internalType": "address",
          "name": "_spender",
          "type": "address"
        }
      ],
      "name": "allowance",
      "outputs": [
        {
          "internalType": "uint256",
          "name": "remaining",
          "type": "uint256"
        }
      ],
      "stateMutability": "view",
      "type": "function",
      "constant": true
    },
    {
      "inputs": [
        {
          "internalType": "address",
          "name": "_spender",
          "type": "address"
        },
        {
          "internalType": "uint256",
          "name": "_tokens",
          "type": "uint256"
        }
      ],
      "name": "approve",
      "outputs": [
        {
          "internalType": "bool",
          "name": "success",
          "type": "bool"
        }
      ],
      "stateMutability": "nonpayable",
      "type": "function"
    },
    {
      "inputs": [
        {
          "internalType": "address",
          "name": "_tokenOwner",
          "type": "address"
        }
      ],
      "name": "balanceOf",
      "outputs": [
        {
          "internalType": "uint256",
          "name": "balance",
          "type": "uint256"
        }
      ],
      "stateMutability": "view",
      "type": "function",
      "constant": true
    },
    {
      "inputs": [],
      "name": "creator",
      "outputs": [
        {
          "internalType": "address",
          "name": "",
          "type": "address"
        }
      ],
      "stateMutability": "view",
      "type": "function",
      "constant": true
    },
    {
      "inputs": [],
      "name": "decimals",
      "outputs": [
        {
          "internalType": "uint256",
          "name": "",
          "type": "uint256"
        }
      ],
      "stateMutability": "view",
      "type": "function",
      "constant": true
    },
    {
      "inputs": [],
      "name": "deposit",
      "outputs": [
        {
          "internalType": "address payable",
          "name": "",
          "type": "address"
        }
      ],
      "stateMutability": "view",
      "type": "function",
      "constant": true
    },
    {
      "inputs": [],
      "name": "goal",
      "outputs": [
        {
          "internalType": "uint256",
          "name": "",
          "type": "uint256"
        }
      ],
      "stateMutability": "view",
      "type": "function",
      "constant": true
    },
    {
      "inputs": [],
      "name": "manager",
      "outputs": [
        {
          "internalType": "address",
          "name": "",
          "type": "address"
        }
      ],
      "stateMutability": "view",
      "type": "function",
      "constant": true
    },
    {
      "inputs": [],
      "name": "minInvestment",
      "outputs": [
        {
          "internalType": "uint256",
          "name": "",
          "type": "uint256"
        }
      ],
      "stateMutability": "view",
      "type": "function",
      "constant": true
    },
    {
      "inputs": [],
      "name": "name",
      "outputs": [
        {
          "internalType": "string",
          "name": "",
          "type": "string"
        }
      ],
      "stateMutability": "view",
      "type": "function",
      "constant": true
    },
    {
      "inputs": [],
      "name": "raisedAmount",
      "outputs": [
        {
          "internalType": "uint256",
          "name": "",
          "type": "uint256"
        }
      ],
      "stateMutability": "view",
      "type": "function",
      "constant": true
    },
    {
      "inputs": [],
      "name": "saleEnd",
      "outputs": [
        {
          "internalType": "uint256",
          "name": "",
          "type": "uint256"
        }
      ],
      "stateMutability": "view",
      "type": "function",
      "constant": true
    },
    {
      "inputs": [],
      "name": "saleStart",
      "outputs": [
        {
          "internalType": "uint256",
          "name": "",
          "type": "uint256"
        }
      ],
      "stateMutability": "view",
      "type": "function",
      "constant": true
    },
    {
      "inputs": [],
      "name": "symbol",
      "outputs": [
        {
          "internalType": "string",
          "name": "",
          "type": "string"
        }
      ],
      "stateMutability": "view",
      "type": "function",
      "constant": true
    },
    {
      "inputs": [],
      "name": "tokenTotalSupply",
      "outputs": [
        {
          "internalType": "uint256",
          "name": "",
          "type": "uint256"
        }
      ],
      "stateMutability": "view",
      "type": "function",
      "constant": true
    },
    {
      "inputs": [],
      "name": "tokenTradeStart",
      "outputs": [
        {
          "internalType": "uint256",
          "name": "",
          "type": "uint256"
        }
      ],
      "stateMutability": "view",
      "type": "function",
      "constant": true
    },
    {
      "inputs": [],
      "name": "totalSupply",
      "outputs": [
        {
          "internalType": "uint256",
          "name": "",
          "type": "uint256"
        }
      ],
      "stateMutability": "view",
      "type": "function",
      "constant": true
    },
    {
      "stateMutability": "payable",
      "type": "receive",
      "payable": true
    },
    {
      "inputs": [],
      "name": "invest",
      "outputs": [
        {
          "internalType": "bool",
          "name": "",
          "type": "bool"
        }
      ],
      "stateMutability": "payable",
      "type": "function",
      "payable": true
    },
    {
      "inputs": [
        {
          "internalType": "address",
          "name": "_to",
          "type": "address"
        },
        {
          "internalType": "uint256",
          "name": "_tokens",
          "type": "uint256"
        }
      ],
      "name": "transfer",
      "outputs": [
        {
          "internalType": "bool",
          "name": "success",
          "type": "bool"
        }
      ],
      "stateMutability": "nonpayable",
      "type": "function"
    },
    {
      "inputs": [
        {
          "internalType": "address",
          "name": "_from",
          "type": "address"
        },
        {
          "internalType": "address",
          "name": "_to",
          "type": "address"
        },
        {
          "internalType": "uint256",
          "name": "_tokens",
          "type": "uint256"
        }
      ],
      "name": "transferFrom",
      "outputs": [
        {
          "internalType": "bool",
          "name": "success",
          "type": "bool"
        }
      ],
      "stateMutability": "nonpayable",
      "type": "function"
    },
    {
      "inputs": [],
      "name": "getCurrentState",
      "outputs": [
        {
          "internalType": "enum ICO.State",
          "name": "",
          "type": "uint8"
        }
      ],
      "stateMutability": "view",
      "type": "function",
      "constant": true
    },
    {
      "inputs": [],
      "name": "stopICO",
      "outputs": [],
      "stateMutability": "nonpayable",
      "type": "function"
    },
    {
      "inputs": [],
      "name": "resumeICO",
      "outputs": [],
      "stateMutability": "nonpayable",
      "type": "function"
    },
    {
      "inputs": [
        {
          "internalType": "address payable",
          "name": "_newDeposit",
          "type": "address"
        }
      ],
      "name": "changeDepositAddress",
      "outputs": [],
      "stateMutability": "nonpayable",
      "type": "function"
    },
    {
      "inputs": [],
      "name": "burnTokens",
      "outputs": [
        {
          "internalType": "bool",
          "name": "",
          "type": "bool"
        }
      ],
      "stateMutability": "nonpayable",
      "type": "function"
    }
  ],
  "bytecode": "0x60806040526040518060400160405280600b81526020017f5a72696e43696e436f696e0000000000000000000000000000000000000000008152506000908051906020019062000051929190620002b8565b506040518060400160405280600381526020017f5a43430000000000000000000000000000000000000000000000000000000000815250600190805190602001906200009f929190620002b8565b506005600255662386f26fc1000060095569017b7883c06916600000600a5542600c556203f48042620000d39190620003ab565b600d55662386f26fc10000600e55620d2f00600d54620000f49190620003ab565b600f553480156200010457600080fd5b5060405162001f8138038062001f8183398181016040528101906200012a91906200037f565b620f424060038190555033600460006101000a81548173ffffffffffffffffffffffffffffffffffffffff021916908373ffffffffffffffffffffffffffffffffffffffff16021790555060035460056000600460009054906101000a900473ffffffffffffffffffffffffffffffffffffffff1673ffffffffffffffffffffffffffffffffffffffff1673ffffffffffffffffffffffffffffffffffffffff1681526020019081526020016000208190555080600860006101000a81548173ffffffffffffffffffffffffffffffffffffffff021916908373ffffffffffffffffffffffffffffffffffffffff16021790555033600760006101000a81548173ffffffffffffffffffffffffffffffffffffffff021916908373ffffffffffffffffffffffffffffffffffffffff1602179055506000601060006101000a81548160ff02191690836003811115620002ac577f4e487b7100000000000000000000000000000000000000000000000000000000600052602160045260246000fd5b021790555050620004f4565b828054620002c69062000446565b90600052602060002090601f016020900481019282620002ea576000855562000336565b82601f106200030557805160ff191683800117855562000336565b8280016001018555821562000336579182015b828111156200033557825182559160200191906001019062000318565b5b50905062000345919062000349565b5090565b5b80821115620003645760008160009055506001016200034a565b5090565b6000815190506200037981620004da565b92915050565b6000602082840312156200039257600080fd5b6000620003a28482850162000368565b91505092915050565b6000620003b8826200043c565b9150620003c5836200043c565b9250827fffffffffffffffffffffffffffffffffffffffffffffffffffffffffffffffff03821115620003fd57620003fc6200047c565b5b828201905092915050565b600062000415826200041c565b9050919050565b600073ffffffffffffffffffffffffffffffffffffffff82169050919050565b6000819050919050565b600060028204905060018216806200045f57607f821691505b60208210811415620004765762000475620004ab565b5b50919050565b7f4e487b7100000000000000000000000000000000000000000000000000000000600052601160045260246000fd5b7f4e487b7100000000000000000000000000000000000000000000000000000000600052602260045260246000fd5b620004e58162000408565b8114620004f157600080fd5b50565b611a7d80620005046000396000f3fe6080604052600436106101855760003560e01c806395d89b41116100d1578063c59ee1dc1161008a578063d0e30db011610064578063d0e30db01461056a578063dd62ed3e14610595578063e8b5e51f146105d2578063f7abab9e146105f057610195565b8063c59ee1dc146104fd578063c8e569a814610528578063cc9ba5831461053f57610195565b806395d89b41146103fd5780639cbd7da514610428578063a9059cbb1461043f578063ab0bcc411461047c578063aeecdc2c146104a7578063c10b9358146104d257610195565b8063313ce5671161013e578063481c6a7511610118578063481c6a75146103415780636d58c88f1461036c57806370a08231146103955780638ac2c680146103d257610195565b8063313ce567146102c0578063378aa701146102eb578063401938831461031657610195565b806302d05d3f1461019a57806306fdde03146101c557806308003f78146101f0578063095ea7b31461021b57806318160ddd1461025857806323b872dd1461028357610195565b366101955761019261061b565b50005b600080fd5b3480156101a657600080fd5b506101af6108c5565b6040516101bc9190611686565b60405180910390f35b3480156101d157600080fd5b506101da6108eb565b6040516101e79190611729565b60405180910390f35b3480156101fc57600080fd5b50610205610979565b60405161021291906116f3565b60405180910390f35b34801561022757600080fd5b50610242600480360381019061023d91906115c6565b610acc565b60405161024f91906116f3565b60405180910390f35b34801561026457600080fd5b5061026d610c16565b60405161027a919061174b565b60405180910390f35b34801561028f57600080fd5b506102aa60048036038101906102a59190611577565b610c20565b6040516102b791906116f3565b60405180910390f35b3480156102cc57600080fd5b506102d5610c47565b6040516102e2919061174b565b60405180910390f35b3480156102f757600080fd5b50610300610c4d565b60405161030d919061170e565b60405180910390f35b34801561032257600080fd5b5061032b610d1c565b604051610338919061174b565b60405180910390f35b34801561034d57600080fd5b50610356610d22565b6040516103639190611686565b60405180910390f35b34801561037857600080fd5b50610393600480360381019061038e9190611512565b610d48565b005b3480156103a157600080fd5b506103bc60048036038101906103b791906114e9565b610de6565b6040516103c9919061174b565b60405180910390f35b3480156103de57600080fd5b506103e7610e2f565b6040516103f4919061174b565b60405180910390f35b34801561040957600080fd5b50610412610e35565b60405161041f9190611729565b60405180910390f35b34801561043457600080fd5b5061043d610ec3565b005b34801561044b57600080fd5b50610466600480360381019061046191906115c6565b610f70565b60405161047391906116f3565b60405180910390f35b34801561048857600080fd5b50610491610f95565b60405161049e919061174b565b60405180910390f35b3480156104b357600080fd5b506104bc610f9b565b6040516104c9919061170e565b60405180910390f35b3480156104de57600080fd5b506104e7610fae565b6040516104f4919061174b565b60405180910390f35b34801561050957600080fd5b50610512610fb4565b60405161051f919061174b565b60405180910390f35b34801561053457600080fd5b5061053d610fba565b005b34801561054b57600080fd5b50610554611067565b604051610561919061174b565b60405180910390f35b34801561057657600080fd5b5061057f61106d565b60405161058c91906116a1565b60405180910390f35b3480156105a157600080fd5b506105bc60048036038101906105b7919061153b565b611093565b6040516105c9919061174b565b60405180910390f35b6105da61061b565b6040516105e791906116f3565b60405180910390f35b3480156105fc57600080fd5b5061060561111a565b604051610612919061174b565b60405180910390f35b6000610625610c4d565b601060006101000a81548160ff0219169083600381111561066f577f4e487b7100000000000000000000000000000000000000000000000000000000600052602160045260246000fd5b0217905550600160038111156106ae577f4e487b7100000000000000000000000000000000000000000000000000000000600052602160045260246000fd5b601060009054906101000a900460ff1660038111156106f6577f4e487b7100000000000000000000000000000000000000000000000000000000600052602160045260246000fd5b1461070057600080fd5b600e5434101561070f57600080fd5b34600b60008282546107219190611782565b92505081905550600a54600b54111561073957600080fd5b60006009543461074991906117d8565b905080600560003373ffffffffffffffffffffffffffffffffffffffff1673ffffffffffffffffffffffffffffffffffffffff168152602001908152602001600020600082825461079a9190611782565b925050819055508060056000600460009054906101000a900473ffffffffffffffffffffffffffffffffffffffff1673ffffffffffffffffffffffffffffffffffffffff1673ffffffffffffffffffffffffffffffffffffffff16815260200190815260200160002060008282546108129190611809565b92505081905550600860009054906101000a900473ffffffffffffffffffffffffffffffffffffffff1673ffffffffffffffffffffffffffffffffffffffff166108fc349081150290604051600060405180830381858888f19350505050158015610881573d6000803e3d6000fd5b507f4ae4bd7655e0d350876a23cd90c4227b13db560e34435c6a488150a9c844bf5f3334836040516108b5939291906116bc565b60405180910390a1600191505090565b600460009054906101000a900473ffffffffffffffffffffffffffffffffffffffff1681565b600080546108f8906118ef565b80601f0160208091040260200160405190810160405280929190818152602001828054610924906118ef565b80156109715780601f1061094657610100808354040283529160200191610971565b820191906000526020600020905b81548152906001019060200180831161095457829003601f168201915b505050505081565b6000610983610c4d565b601060006101000a81548160ff021916908360038111156109cd577f4e487b7100000000000000000000000000000000000000000000000000000000600052602160045260246000fd5b021790555060026003811115610a0c577f4e487b7100000000000000000000000000000000000000000000000000000000600052602160045260246000fd5b601060009054906101000a900460ff166003811115610a54577f4e487b7100000000000000000000000000000000000000000000000000000000600052602160045260246000fd5b14610a5e57600080fd5b600060056000600460009054906101000a900473ffffffffffffffffffffffffffffffffffffffff1673ffffffffffffffffffffffffffffffffffffffff1673ffffffffffffffffffffffffffffffffffffffff168152602001908152602001600020819055506001905090565b6000808211610ada57600080fd5b81600560003373ffffffffffffffffffffffffffffffffffffffff1673ffffffffffffffffffffffffffffffffffffffff168152602001908152602001600020541015610b2657600080fd5b81600660003373ffffffffffffffffffffffffffffffffffffffff1673ffffffffffffffffffffffffffffffffffffffff16815260200190815260200160002060008573ffffffffffffffffffffffffffffffffffffffff1673ffffffffffffffffffffffffffffffffffffffff168152602001908152602001600020819055508273ffffffffffffffffffffffffffffffffffffffff163373ffffffffffffffffffffffffffffffffffffffff167f8c5be1e5ebec7d5bd14f71427d1e84f3dd0314c0f7b2291e5b200ac8c7c3b92584604051610c04919061174b565b60405180910390a36001905092915050565b6000600354905090565b6000600f544211610c3057600080fd5b610c3b848484611120565b50600190509392505050565b60025481565b6000600380811115610c88577f4e487b7100000000000000000000000000000000000000000000000000000000600052602160045260246000fd5b601060009054906101000a900460ff166003811115610cd0577f4e487b7100000000000000000000000000000000000000000000000000000000600052602160045260246000fd5b1415610cdf5760039050610d19565b600c54421015610cf25760009050610d19565b600c544210158015610d065750600d544211155b15610d145760019050610d19565b600290505b90565b600a5481565b600760009054906101000a900473ffffffffffffffffffffffffffffffffffffffff1681565b600760009054906101000a900473ffffffffffffffffffffffffffffffffffffffff1673ffffffffffffffffffffffffffffffffffffffff163373ffffffffffffffffffffffffffffffffffffffff1614610da257600080fd5b80600860006101000a81548173ffffffffffffffffffffffffffffffffffffffff021916908373ffffffffffffffffffffffffffffffffffffffff16021790555050565b6000600560008373ffffffffffffffffffffffffffffffffffffffff1673ffffffffffffffffffffffffffffffffffffffff168152602001908152602001600020549050919050565b600e5481565b60018054610e42906118ef565b80601f0160208091040260200160405190810160405280929190818152602001828054610e6e906118ef565b8015610ebb5780601f10610e9057610100808354040283529160200191610ebb565b820191906000526020600020905b815481529060010190602001808311610e9e57829003601f168201915b505050505081565b600760009054906101000a900473ffffffffffffffffffffffffffffffffffffffff1673ffffffffffffffffffffffffffffffffffffffff163373ffffffffffffffffffffffffffffffffffffffff1614610f1d57600080fd5b6001601060006101000a81548160ff02191690836003811115610f69577f4e487b7100000000000000000000000000000000000000000000000000000000600052602160045260246000fd5b0217905550565b6000600f544211610f8057600080fd5b610f8a8383611341565b506001905092915050565b600c5481565b601060009054906101000a900460ff1681565b600d5481565b600b5481565b600760009054906101000a900473ffffffffffffffffffffffffffffffffffffffff1673ffffffffffffffffffffffffffffffffffffffff163373ffffffffffffffffffffffffffffffffffffffff161461101457600080fd5b6003601060006101000a81548160ff02191690836003811115611060577f4e487b7100000000000000000000000000000000000000000000000000000000600052602160045260246000fd5b0217905550565b600f5481565b600860009054906101000a900473ffffffffffffffffffffffffffffffffffffffff1681565b6000600660008473ffffffffffffffffffffffffffffffffffffffff1673ffffffffffffffffffffffffffffffffffffffff16815260200190815260200160002060008373ffffffffffffffffffffffffffffffffffffffff1673ffffffffffffffffffffffffffffffffffffffff16815260200190815260200160002054905092915050565b60035481565b600081600560008673ffffffffffffffffffffffffffffffffffffffff1673ffffffffffffffffffffffffffffffffffffffff16815260200190815260200160002054101561116e57600080fd5b81600660008673ffffffffffffffffffffffffffffffffffffffff1673ffffffffffffffffffffffffffffffffffffffff16815260200190815260200160002060008573ffffffffffffffffffffffffffffffffffffffff1673ffffffffffffffffffffffffffffffffffffffff1681526020019081526020016000205410156111f757600080fd5b81600560008673ffffffffffffffffffffffffffffffffffffffff1673ffffffffffffffffffffffffffffffffffffffff16815260200190815260200160002060008282546112469190611809565b9250508190555081600560008573ffffffffffffffffffffffffffffffffffffffff1673ffffffffffffffffffffffffffffffffffffffff168152602001908152602001600020600082825461129c9190611782565b9250508190555081600660008673ffffffffffffffffffffffffffffffffffffffff1673ffffffffffffffffffffffffffffffffffffffff16815260200190815260200160002060008573ffffffffffffffffffffffffffffffffffffffff1673ffffffffffffffffffffffffffffffffffffffff168152602001908152602001600020600082825461132f9190611809565b92505081905550600190509392505050565b600081600560003373ffffffffffffffffffffffffffffffffffffffff1673ffffffffffffffffffffffffffffffffffffffff16815260200190815260200160002054101561138f57600080fd5b81600560003373ffffffffffffffffffffffffffffffffffffffff1673ffffffffffffffffffffffffffffffffffffffff16815260200190815260200160002060008282546113de9190611809565b9250508190555081600560008573ffffffffffffffffffffffffffffffffffffffff1673ffffffffffffffffffffffffffffffffffffffff16815260200190815260200160002060008282546114349190611782565b925050819055508273ffffffffffffffffffffffffffffffffffffffff163373ffffffffffffffffffffffffffffffffffffffff167fddf252ad1be2c89b69c2b068fc378daa952ba7f163c4a11628f55a4df523b3ef84604051611498919061174b565b60405180910390a36001905092915050565b6000813590506114b981611a02565b92915050565b6000813590506114ce81611a19565b92915050565b6000813590506114e381611a30565b92915050565b6000602082840312156114fb57600080fd5b6000611509848285016114aa565b91505092915050565b60006020828403121561152457600080fd5b6000611532848285016114bf565b91505092915050565b6000806040838503121561154e57600080fd5b600061155c858286016114aa565b925050602061156d858286016114aa565b9150509250929050565b60008060006060848603121561158c57600080fd5b600061159a868287016114aa565b93505060206115ab868287016114aa565b92505060406115bc868287016114d4565b9150509250925092565b600080604083850312156115d957600080fd5b60006115e7858286016114aa565b92505060206115f8858286016114d4565b9150509250929050565b61160b8161184f565b82525050565b61161a8161183d565b82525050565b61162981611861565b82525050565b611638816118aa565b82525050565b600061164982611766565b6116538185611771565b93506116638185602086016118bc565b61166c816119dd565b840191505092915050565b611680816118a0565b82525050565b600060208201905061169b6000830184611611565b92915050565b60006020820190506116b66000830184611602565b92915050565b60006060820190506116d16000830186611611565b6116de6020830185611677565b6116eb6040830184611677565b949350505050565b60006020820190506117086000830184611620565b92915050565b6000602082019050611723600083018461162f565b92915050565b60006020820190508181036000830152611743818461163e565b905092915050565b60006020820190506117606000830184611677565b92915050565b600081519050919050565b600082825260208201905092915050565b600061178d826118a0565b9150611798836118a0565b9250827fffffffffffffffffffffffffffffffffffffffffffffffffffffffffffffffff038211156117cd576117cc611921565b5b828201905092915050565b60006117e3826118a0565b91506117ee836118a0565b9250826117fe576117fd611950565b5b828204905092915050565b6000611814826118a0565b915061181f836118a0565b92508282101561183257611831611921565b5b828203905092915050565b600061184882611880565b9050919050565b600061185a82611880565b9050919050565b60008115159050919050565b600081905061187b826119ee565b919050565b600073ffffffffffffffffffffffffffffffffffffffff82169050919050565b6000819050919050565b60006118b58261186d565b9050919050565b60005b838110156118da5780820151818401526020810190506118bf565b838111156118e9576000848401525b50505050565b6000600282049050600182168061190757607f821691505b6020821081141561191b5761191a6119ae565b5b50919050565b7f4e487b7100000000000000000000000000000000000000000000000000000000600052601160045260246000fd5b7f4e487b7100000000000000000000000000000000000000000000000000000000600052601260045260246000fd5b7f4e487b7100000000000000000000000000000000000000000000000000000000600052602160045260246000fd5b7f4e487b7100000000000000000000000000000000000000000000000000000000600052602260045260246000fd5b6000601f19601f8301169050919050565b600481106119ff576119fe61197f565b5b50565b611a0b8161183d565b8114611a1657600080fd5b50565b611a228161184f565b8114611a2d57600080fd5b50565b611a39816118a0565b8114611a4457600080fd5b5056fea2646970667358221220709237b6bfd6d8276254e2fc402d68362869a4f1072f3ffbdb4bd24b9b6a51d764736f6c63430008000033",
  "immutableReferences": {},
  "source": "//SPDX-License-Identifier: GPL-3.0\r\n\r\npragma solidity ^0.8.0;\r\n\r\nimport \"./ZCC.sol\";\r\n\r\ncontract ICO is ZrinCinCoin {\r\n    address public manager;\r\n    address payable public deposit;\r\n    \r\n    uint tokenPrice = 0.01 ether;  \r\n    uint public goal = 7000 ether;\r\n    uint public raisedAmount; \r\n    uint public saleStart = block.timestamp;\r\n    uint public saleEnd = block.timestamp + 259200;    \r\n    uint public minInvestment = 0.01 ether;\r\n    \r\n    uint public tokenTradeStart = saleEnd + 864000; \r\n\r\n    \r\n    enum State { NOT_STARTED, RUNNING, ENDED, SUSPENDED} \r\n    State public ICOState;\r\n\r\n    modifier managerOnly() {\r\n        require(msg.sender == manager);\r\n        _;\r\n    }\r\n\r\n    constructor(address payable _deposit) {\r\n        deposit = _deposit;\r\n        manager = msg.sender;\r\n        ICOState = State.NOT_STARTED;\r\n    }\r\n\r\n    receive() payable external {\r\n        invest();\r\n    }\r\n\r\n    event Invest(address _investor, uint _value, uint _tokens);\r\n\r\n    function invest() payable public returns (bool) { \r\n        ICOState = getCurrentState();\r\n        require(ICOState == State.RUNNING);\r\n        require(msg.value >= minInvestment);\r\n        \r\n        raisedAmount += msg.value;\r\n        require(raisedAmount <= goal);\r\n        \r\n        uint tokens = msg.value / tokenPrice;\r\n \r\n      \r\n        balances[msg.sender] += tokens;\r\n        balances[creator] -= tokens; \r\n        deposit.transfer(msg.value); \r\n        \r\n        emit Invest(msg.sender, msg.value, tokens);\r\n        \r\n        return true;\r\n    }\r\n\r\n    function transfer(address _to, uint _tokens) public override returns (bool success) {\r\n        require(block.timestamp > tokenTradeStart);\r\n     \r\n        ZrinCinCoin.transfer(_to, _tokens); \r\n        \r\n        return true;\r\n    }\r\n\r\n    function transferFrom(address _from, address _to, uint _tokens) public override returns (bool success) {\r\n        require(block.timestamp > tokenTradeStart); \r\n       \r\n        ZrinCinCoin.transferFrom(_from, _to, _tokens); \r\n\r\n        return true;\r\n    }\r\n\r\n    function getCurrentState() public view returns (State) {\r\n        if (ICOState == State.SUSPENDED){\r\n            return State.SUSPENDED;\r\n        } else if (block.timestamp < saleStart) {\r\n            return State.NOT_STARTED;\r\n        } else if (block.timestamp >= saleStart && block.timestamp <= saleEnd) {\r\n            return State.RUNNING;\r\n        } else {\r\n            return State.ENDED;\r\n        }\r\n    }\r\n\r\n    function stopICO() public managerOnly {\r\n        ICOState = State.SUSPENDED;\r\n    }\r\n\r\n    function resumeICO() public managerOnly {\r\n        ICOState = State.RUNNING;\r\n    }\r\n\r\n    function changeDepositAddress(address payable _newDeposit) public managerOnly {\r\n        deposit = _newDeposit;\r\n    }\r\n\r\n     function burnTokens() public returns (bool) {\r\n        ICOState = getCurrentState();\r\n        require(ICOState == State.ENDED);\r\n        \r\n        balances[creator] = 0;\r\n        \r\n        return true;\r\n    }\r\n}",
  "sourcePath": "C:/Users/zrinc/Projects/ICO/contracts/ICO.sol",
  "compiler": {
    "name": "solc",
    "version": "0.8.0+commit.c7dfd78e.Emscripten.clang"
  },
  "schemaVersion": "3.4.1",
  "updatedAt": "2021-10-07T19:30:34.703Z",
  "networkType": "ethereum",
  "devdoc": {
    "kind": "dev",
    "methods": {},
    "version": 1
  },
  "userdoc": {
    "kind": "user",
    "methods": {},
    "version": 1
  }
}