{
  "contractName": "ICO",
  "abi": [
    {
      "inputs": [
        {
          "internalType": "address payable",
          "name": "_deposit",
          "type": "address"
        }
      ],
      "stateMutability": "nonpayable",
      "type": "constructor"
    },
    {
      "anonymous": false,
      "inputs": [
        {
          "indexed": true,
          "internalType": "address",
          "name": "_tokenOwner",
          "type": "address"
        },
        {
          "indexed": true,
          "internalType": "address",
          "name": "_spender",
          "type": "address"
        },
        {
          "indexed": false,
          "internalType": "uint256",
          "name": "_tokens",
          "type": "uint256"
        }
      ],
      "name": "Approval",
      "type": "event"
    },
    {
      "anonymous": false,
      "inputs": [
        {
          "indexed": false,
          "internalType": "address",
          "name": "_investor",
          "type": "address"
        },
        {
          "indexed": false,
          "internalType": "uint256",
          "name": "_value",
          "type": "uint256"
        },
        {
          "indexed": false,
          "internalType": "uint256",
          "name": "_tokens",
          "type": "uint256"
        }
      ],
      "name": "Invest",
      "type": "event"
    },
    {
      "anonymous": false,
      "inputs": [
        {
          "indexed": true,
          "internalType": "address",
          "name": "_from",
          "type": "address"
        },
        {
          "indexed": true,
          "internalType": "address",
          "name": "_to",
          "type": "address"
        },
        {
          "indexed": false,
          "internalType": "uint256",
          "name": "_tokens",
          "type": "uint256"
        }
      ],
      "name": "Transfer",
      "type": "event"
    },
    {
      "inputs": [],
      "name": "ICOState",
      "outputs": [
        {
          "internalType": "enum ICO.State",
          "name": "",
          "type": "uint8"
        }
      ],
      "stateMutability": "view",
      "type": "function",
      "constant": true
    },
    {
      "inputs": [
        {
          "internalType": "address",
          "name": "_tokenOwner",
          "type": "address"
        },
        {
          "internalType": "address",
          "name": "_spender",
          "type": "address"
        }
      ],
      "name": "allowance",
      "outputs": [
        {
          "internalType": "uint256",
          "name": "remaining",
          "type": "uint256"
        }
      ],
      "stateMutability": "view",
      "type": "function",
      "constant": true
    },
    {
      "inputs": [
        {
          "internalType": "address",
          "name": "_spender",
          "type": "address"
        },
        {
          "internalType": "uint256",
          "name": "_tokens",
          "type": "uint256"
        }
      ],
      "name": "approve",
      "outputs": [
        {
          "internalType": "bool",
          "name": "success",
          "type": "bool"
        }
      ],
      "stateMutability": "nonpayable",
      "type": "function"
    },
    {
      "inputs": [
        {
          "internalType": "address",
          "name": "_tokenOwner",
          "type": "address"
        }
      ],
      "name": "balanceOf",
      "outputs": [
        {
          "internalType": "uint256",
          "name": "balance",
          "type": "uint256"
        }
      ],
      "stateMutability": "view",
      "type": "function",
      "constant": true
    },
    {
      "inputs": [],
      "name": "creator",
      "outputs": [
        {
          "internalType": "address",
          "name": "",
          "type": "address"
        }
      ],
      "stateMutability": "view",
      "type": "function",
      "constant": true
    },
    {
      "inputs": [],
      "name": "decimals",
      "outputs": [
        {
          "internalType": "uint256",
          "name": "",
          "type": "uint256"
        }
      ],
      "stateMutability": "view",
      "type": "function",
      "constant": true
    },
    {
      "inputs": [],
      "name": "deposit",
      "outputs": [
        {
          "internalType": "address payable",
          "name": "",
          "type": "address"
        }
      ],
      "stateMutability": "view",
      "type": "function",
      "constant": true
    },
    {
      "inputs": [],
      "name": "goal",
      "outputs": [
        {
          "internalType": "uint256",
          "name": "",
          "type": "uint256"
        }
      ],
      "stateMutability": "view",
      "type": "function",
      "constant": true
    },
    {
      "inputs": [],
      "name": "manager",
      "outputs": [
        {
          "internalType": "address",
          "name": "",
          "type": "address"
        }
      ],
      "stateMutability": "view",
      "type": "function",
      "constant": true
    },
    {
      "inputs": [],
      "name": "maxInvestment",
      "outputs": [
        {
          "internalType": "uint256",
          "name": "",
          "type": "uint256"
        }
      ],
      "stateMutability": "view",
      "type": "function",
      "constant": true
    },
    {
      "inputs": [],
      "name": "minInvestment",
      "outputs": [
        {
          "internalType": "uint256",
          "name": "",
          "type": "uint256"
        }
      ],
      "stateMutability": "view",
      "type": "function",
      "constant": true
    },
    {
      "inputs": [],
      "name": "name",
      "outputs": [
        {
          "internalType": "string",
          "name": "",
          "type": "string"
        }
      ],
      "stateMutability": "view",
      "type": "function",
      "constant": true
    },
    {
      "inputs": [],
      "name": "raisedAmount",
      "outputs": [
        {
          "internalType": "uint256",
          "name": "",
          "type": "uint256"
        }
      ],
      "stateMutability": "view",
      "type": "function",
      "constant": true
    },
    {
      "inputs": [],
      "name": "saleEnd",
      "outputs": [
        {
          "internalType": "uint256",
          "name": "",
          "type": "uint256"
        }
      ],
      "stateMutability": "view",
      "type": "function",
      "constant": true
    },
    {
      "inputs": [],
      "name": "saleStart",
      "outputs": [
        {
          "internalType": "uint256",
          "name": "",
          "type": "uint256"
        }
      ],
      "stateMutability": "view",
      "type": "function",
      "constant": true
    },
    {
      "inputs": [],
      "name": "symbol",
      "outputs": [
        {
          "internalType": "string",
          "name": "",
          "type": "string"
        }
      ],
      "stateMutability": "view",
      "type": "function",
      "constant": true
    },
    {
      "inputs": [],
      "name": "tokenTradeStart",
      "outputs": [
        {
          "internalType": "uint256",
          "name": "",
          "type": "uint256"
        }
      ],
      "stateMutability": "view",
      "type": "function",
      "constant": true
    },
    {
      "inputs": [],
      "name": "totalSupply",
      "outputs": [
        {
          "internalType": "uint256",
          "name": "",
          "type": "uint256"
        }
      ],
      "stateMutability": "view",
      "type": "function",
      "constant": true
    },
    {
      "stateMutability": "payable",
      "type": "receive",
      "payable": true
    },
    {
      "inputs": [],
      "name": "invest",
      "outputs": [
        {
          "internalType": "bool",
          "name": "",
          "type": "bool"
        }
      ],
      "stateMutability": "payable",
      "type": "function",
      "payable": true
    },
    {
      "inputs": [
        {
          "internalType": "address",
          "name": "_to",
          "type": "address"
        },
        {
          "internalType": "uint256",
          "name": "_tokens",
          "type": "uint256"
        }
      ],
      "name": "transfer",
      "outputs": [
        {
          "internalType": "bool",
          "name": "success",
          "type": "bool"
        }
      ],
      "stateMutability": "nonpayable",
      "type": "function"
    },
    {
      "inputs": [
        {
          "internalType": "address",
          "name": "_from",
          "type": "address"
        },
        {
          "internalType": "address",
          "name": "_to",
          "type": "address"
        },
        {
          "internalType": "uint256",
          "name": "_tokens",
          "type": "uint256"
        }
      ],
      "name": "transferFrom",
      "outputs": [
        {
          "internalType": "bool",
          "name": "success",
          "type": "bool"
        }
      ],
      "stateMutability": "nonpayable",
      "type": "function"
    },
    {
      "inputs": [],
      "name": "getCurrentState",
      "outputs": [
        {
          "internalType": "enum ICO.State",
          "name": "",
          "type": "uint8"
        }
      ],
      "stateMutability": "view",
      "type": "function",
      "constant": true
    },
    {
      "inputs": [],
      "name": "stopICO",
      "outputs": [],
      "stateMutability": "nonpayable",
      "type": "function"
    },
    {
      "inputs": [],
      "name": "resumeICO",
      "outputs": [],
      "stateMutability": "nonpayable",
      "type": "function"
    },
    {
      "inputs": [
        {
          "internalType": "address payable",
          "name": "_newDeposit",
          "type": "address"
        }
      ],
      "name": "changeDepositAddress",
      "outputs": [],
      "stateMutability": "nonpayable",
      "type": "function"
    },
    {
      "inputs": [],
      "name": "burnTokens",
      "outputs": [
        {
          "internalType": "bool",
          "name": "",
          "type": "bool"
        }
      ],
      "stateMutability": "nonpayable",
      "type": "function"
    }
  ],
  "bytecode": "0x60806040526040518060400160405280600381526020017f5a43430000000000000000000000000000000000000000000000000000000000815250600090805190602001906200005192919062000279565b506005600155662386f26fc1000060085569021e19e0c9bab240000060095542600b556203f480426200008591906200036c565b600c5567016345785d8a0000600d55674563918244f40000600e55620d2f00600c54620000b391906200036c565b600f55348015620000c357600080fd5b5060405162001efa38038062001efa8339818101604052810190620000e9919062000340565b64174876e80060028190555033600360006101000a81548173ffffffffffffffffffffffffffffffffffffffff021916908373ffffffffffffffffffffffffffffffffffffffff16021790555060025460046000600360009054906101000a900473ffffffffffffffffffffffffffffffffffffffff1673ffffffffffffffffffffffffffffffffffffffff1673ffffffffffffffffffffffffffffffffffffffff1681526020019081526020016000208190555080600760006101000a81548173ffffffffffffffffffffffffffffffffffffffff021916908373ffffffffffffffffffffffffffffffffffffffff16021790555033600660006101000a81548173ffffffffffffffffffffffffffffffffffffffff021916908373ffffffffffffffffffffffffffffffffffffffff1602179055506000601060006101000a81548160ff021916908360038111156200026d577f4e487b7100000000000000000000000000000000000000000000000000000000600052602160045260246000fd5b021790555050620004b5565b828054620002879062000407565b90600052602060002090601f016020900481019282620002ab5760008555620002f7565b82601f10620002c657805160ff1916838001178555620002f7565b82800160010185558215620002f7579182015b82811115620002f6578251825591602001919060010190620002d9565b5b5090506200030691906200030a565b5090565b5b80821115620003255760008160009055506001016200030b565b5090565b6000815190506200033a816200049b565b92915050565b6000602082840312156200035357600080fd5b6000620003638482850162000329565b91505092915050565b60006200037982620003fd565b91506200038683620003fd565b9250827fffffffffffffffffffffffffffffffffffffffffffffffffffffffffffffffff03821115620003be57620003bd6200043d565b5b828201905092915050565b6000620003d682620003dd565b9050919050565b600073ffffffffffffffffffffffffffffffffffffffff82169050919050565b6000819050919050565b600060028204905060018216806200042057607f821691505b602082108114156200043757620004366200046c565b5b50919050565b7f4e487b7100000000000000000000000000000000000000000000000000000000600052601160045260246000fd5b7f4e487b7100000000000000000000000000000000000000000000000000000000600052602260045260246000fd5b620004a681620003c9565b8114620004b257600080fd5b50565b611a3580620004c56000396000f3fe6080604052600436106101845760003560e01c80638ac2c680116100d1578063c10b93581161008a578063cc9ba58311610064578063cc9ba58314610569578063d0e30db014610594578063dd62ed3e146105bf578063e8b5e51f146105fc57610194565b8063c10b9358146104fc578063c59ee1dc14610527578063c8e569a81461055257610194565b80638ac2c680146103fc57806395d89b41146104275780639cbd7da514610452578063a9059cbb14610469578063ab0bcc41146104a6578063aeecdc2c146104d157610194565b806323b872dd1161013e57806340193883116101185780634019388314610340578063481c6a751461036b5780636d58c88f1461039657806370a08231146103bf57610194565b806323b872dd146102ad578063313ce567146102ea578063378aa7011461031557610194565b80622e13161461019957806302d05d3f146101c457806306fdde03146101ef57806308003f781461021a578063095ea7b31461024557806318160ddd1461028257610194565b366101945761019161061a565b50005b600080fd5b3480156101a557600080fd5b506101ae6108d2565b6040516101bb9190611703565b60405180910390f35b3480156101d057600080fd5b506101d96108d8565b6040516101e6919061163e565b60405180910390f35b3480156101fb57600080fd5b506102046108fe565b60405161021191906116e1565b60405180910390f35b34801561022657600080fd5b5061022f610937565b60405161023c91906116ab565b60405180910390f35b34801561025157600080fd5b5061026c6004803603810190610267919061157e565b610a8a565b60405161027991906116ab565b60405180910390f35b34801561028e57600080fd5b50610297610bd4565b6040516102a49190611703565b60405180910390f35b3480156102b957600080fd5b506102d460048036038101906102cf919061152f565b610bde565b6040516102e191906116ab565b60405180910390f35b3480156102f657600080fd5b506102ff610c05565b60405161030c9190611703565b60405180910390f35b34801561032157600080fd5b5061032a610c0b565b60405161033791906116c6565b60405180910390f35b34801561034c57600080fd5b50610355610cda565b6040516103629190611703565b60405180910390f35b34801561037757600080fd5b50610380610ce0565b60405161038d919061163e565b60405180910390f35b3480156103a257600080fd5b506103bd60048036038101906103b891906114ca565b610d06565b005b3480156103cb57600080fd5b506103e660048036038101906103e191906114a1565b610da4565b6040516103f39190611703565b60405180910390f35b34801561040857600080fd5b50610411610ded565b60405161041e9190611703565b60405180910390f35b34801561043357600080fd5b5061043c610df3565b60405161044991906116e1565b60405180910390f35b34801561045e57600080fd5b50610467610e81565b005b34801561047557600080fd5b50610490600480360381019061048b919061157e565b610f2e565b60405161049d91906116ab565b60405180910390f35b3480156104b257600080fd5b506104bb610f53565b6040516104c89190611703565b60405180910390f35b3480156104dd57600080fd5b506104e6610f59565b6040516104f391906116c6565b60405180910390f35b34801561050857600080fd5b50610511610f6c565b60405161051e9190611703565b60405180910390f35b34801561053357600080fd5b5061053c610f72565b6040516105499190611703565b60405180910390f35b34801561055e57600080fd5b50610567610f78565b005b34801561057557600080fd5b5061057e611025565b60405161058b9190611703565b60405180910390f35b3480156105a057600080fd5b506105a961102b565b6040516105b69190611659565b60405180910390f35b3480156105cb57600080fd5b506105e660048036038101906105e191906114f3565b611051565b6040516105f39190611703565b60405180910390f35b61060461061a565b60405161061191906116ab565b60405180910390f35b6000610624610c0b565b601060006101000a81548160ff0219169083600381111561066e577f4e487b7100000000000000000000000000000000000000000000000000000000600052602160045260246000fd5b0217905550600160038111156106ad577f4e487b7100000000000000000000000000000000000000000000000000000000600052602160045260246000fd5b601060009054906101000a900460ff1660038111156106f5577f4e487b7100000000000000000000000000000000000000000000000000000000600052602160045260246000fd5b146106ff57600080fd5b600d5434101580156107135750600e543411155b61071c57600080fd5b34600a600082825461072e919061173a565b92505081905550600954600a54111561074657600080fd5b6000600854346107569190611790565b905080600460003373ffffffffffffffffffffffffffffffffffffffff1673ffffffffffffffffffffffffffffffffffffffff16815260200190815260200160002060008282546107a7919061173a565b925050819055508060046000600360009054906101000a900473ffffffffffffffffffffffffffffffffffffffff1673ffffffffffffffffffffffffffffffffffffffff1673ffffffffffffffffffffffffffffffffffffffff168152602001908152602001600020600082825461081f91906117c1565b92505081905550600760009054906101000a900473ffffffffffffffffffffffffffffffffffffffff1673ffffffffffffffffffffffffffffffffffffffff166108fc349081150290604051600060405180830381858888f1935050505015801561088e573d6000803e3d6000fd5b507f4ae4bd7655e0d350876a23cd90c4227b13db560e34435c6a488150a9c844bf5f3334836040516108c293929190611674565b60405180910390a1600191505090565b600e5481565b600360009054906101000a900473ffffffffffffffffffffffffffffffffffffffff1681565b6040518060400160405280600b81526020017f5a72696e43696e436f696e00000000000000000000000000000000000000000081525081565b6000610941610c0b565b601060006101000a81548160ff0219169083600381111561098b577f4e487b7100000000000000000000000000000000000000000000000000000000600052602160045260246000fd5b0217905550600260038111156109ca577f4e487b7100000000000000000000000000000000000000000000000000000000600052602160045260246000fd5b601060009054906101000a900460ff166003811115610a12577f4e487b7100000000000000000000000000000000000000000000000000000000600052602160045260246000fd5b14610a1c57600080fd5b600060046000600360009054906101000a900473ffffffffffffffffffffffffffffffffffffffff1673ffffffffffffffffffffffffffffffffffffffff1673ffffffffffffffffffffffffffffffffffffffff168152602001908152602001600020819055506001905090565b6000808211610a9857600080fd5b81600460003373ffffffffffffffffffffffffffffffffffffffff1673ffffffffffffffffffffffffffffffffffffffff168152602001908152602001600020541015610ae457600080fd5b81600560003373ffffffffffffffffffffffffffffffffffffffff1673ffffffffffffffffffffffffffffffffffffffff16815260200190815260200160002060008573ffffffffffffffffffffffffffffffffffffffff1673ffffffffffffffffffffffffffffffffffffffff168152602001908152602001600020819055508273ffffffffffffffffffffffffffffffffffffffff163373ffffffffffffffffffffffffffffffffffffffff167f8c5be1e5ebec7d5bd14f71427d1e84f3dd0314c0f7b2291e5b200ac8c7c3b92584604051610bc29190611703565b60405180910390a36001905092915050565b6000600254905090565b6000600f544211610bee57600080fd5b610bf98484846110d8565b50600190509392505050565b60015481565b6000600380811115610c46577f4e487b7100000000000000000000000000000000000000000000000000000000600052602160045260246000fd5b601060009054906101000a900460ff166003811115610c8e577f4e487b7100000000000000000000000000000000000000000000000000000000600052602160045260246000fd5b1415610c9d5760039050610cd7565b600b54421015610cb05760009050610cd7565b600b544210158015610cc45750600c544211155b15610cd25760019050610cd7565b600290505b90565b60095481565b600660009054906101000a900473ffffffffffffffffffffffffffffffffffffffff1681565b600660009054906101000a900473ffffffffffffffffffffffffffffffffffffffff1673ffffffffffffffffffffffffffffffffffffffff163373ffffffffffffffffffffffffffffffffffffffff1614610d6057600080fd5b80600760006101000a81548173ffffffffffffffffffffffffffffffffffffffff021916908373ffffffffffffffffffffffffffffffffffffffff16021790555050565b6000600460008373ffffffffffffffffffffffffffffffffffffffff1673ffffffffffffffffffffffffffffffffffffffff168152602001908152602001600020549050919050565b600d5481565b60008054610e00906118a7565b80601f0160208091040260200160405190810160405280929190818152602001828054610e2c906118a7565b8015610e795780601f10610e4e57610100808354040283529160200191610e79565b820191906000526020600020905b815481529060010190602001808311610e5c57829003601f168201915b505050505081565b600660009054906101000a900473ffffffffffffffffffffffffffffffffffffffff1673ffffffffffffffffffffffffffffffffffffffff163373ffffffffffffffffffffffffffffffffffffffff1614610edb57600080fd5b6001601060006101000a81548160ff02191690836003811115610f27577f4e487b7100000000000000000000000000000000000000000000000000000000600052602160045260246000fd5b0217905550565b6000600f544211610f3e57600080fd5b610f4883836112f9565b506001905092915050565b600b5481565b601060009054906101000a900460ff1681565b600c5481565b600a5481565b600660009054906101000a900473ffffffffffffffffffffffffffffffffffffffff1673ffffffffffffffffffffffffffffffffffffffff163373ffffffffffffffffffffffffffffffffffffffff1614610fd257600080fd5b6003601060006101000a81548160ff0219169083600381111561101e577f4e487b7100000000000000000000000000000000000000000000000000000000600052602160045260246000fd5b0217905550565b600f5481565b600760009054906101000a900473ffffffffffffffffffffffffffffffffffffffff1681565b6000600560008473ffffffffffffffffffffffffffffffffffffffff1673ffffffffffffffffffffffffffffffffffffffff16815260200190815260200160002060008373ffffffffffffffffffffffffffffffffffffffff1673ffffffffffffffffffffffffffffffffffffffff16815260200190815260200160002054905092915050565b600081600460008673ffffffffffffffffffffffffffffffffffffffff1673ffffffffffffffffffffffffffffffffffffffff16815260200190815260200160002054101561112657600080fd5b81600560008673ffffffffffffffffffffffffffffffffffffffff1673ffffffffffffffffffffffffffffffffffffffff16815260200190815260200160002060003373ffffffffffffffffffffffffffffffffffffffff1673ffffffffffffffffffffffffffffffffffffffff1681526020019081526020016000205410156111af57600080fd5b81600460008673ffffffffffffffffffffffffffffffffffffffff1673ffffffffffffffffffffffffffffffffffffffff16815260200190815260200160002060008282546111fe91906117c1565b9250508190555081600460008573ffffffffffffffffffffffffffffffffffffffff1673ffffffffffffffffffffffffffffffffffffffff1681526020019081526020016000206000828254611254919061173a565b9250508190555081600560008673ffffffffffffffffffffffffffffffffffffffff1673ffffffffffffffffffffffffffffffffffffffff16815260200190815260200160002060003373ffffffffffffffffffffffffffffffffffffffff1673ffffffffffffffffffffffffffffffffffffffff16815260200190815260200160002060008282546112e791906117c1565b92505081905550600190509392505050565b600081600460003373ffffffffffffffffffffffffffffffffffffffff1673ffffffffffffffffffffffffffffffffffffffff16815260200190815260200160002054101561134757600080fd5b81600460003373ffffffffffffffffffffffffffffffffffffffff1673ffffffffffffffffffffffffffffffffffffffff168152602001908152602001600020600082825461139691906117c1565b9250508190555081600460008573ffffffffffffffffffffffffffffffffffffffff1673ffffffffffffffffffffffffffffffffffffffff16815260200190815260200160002060008282546113ec919061173a565b925050819055508273ffffffffffffffffffffffffffffffffffffffff163373ffffffffffffffffffffffffffffffffffffffff167fddf252ad1be2c89b69c2b068fc378daa952ba7f163c4a11628f55a4df523b3ef846040516114509190611703565b60405180910390a36001905092915050565b600081359050611471816119ba565b92915050565b600081359050611486816119d1565b92915050565b60008135905061149b816119e8565b92915050565b6000602082840312156114b357600080fd5b60006114c184828501611462565b91505092915050565b6000602082840312156114dc57600080fd5b60006114ea84828501611477565b91505092915050565b6000806040838503121561150657600080fd5b600061151485828601611462565b925050602061152585828601611462565b9150509250929050565b60008060006060848603121561154457600080fd5b600061155286828701611462565b935050602061156386828701611462565b92505060406115748682870161148c565b9150509250925092565b6000806040838503121561159157600080fd5b600061159f85828601611462565b92505060206115b08582860161148c565b9150509250929050565b6115c381611807565b82525050565b6115d2816117f5565b82525050565b6115e181611819565b82525050565b6115f081611862565b82525050565b60006116018261171e565b61160b8185611729565b935061161b818560208601611874565b61162481611995565b840191505092915050565b61163881611858565b82525050565b600060208201905061165360008301846115c9565b92915050565b600060208201905061166e60008301846115ba565b92915050565b600060608201905061168960008301866115c9565b611696602083018561162f565b6116a3604083018461162f565b949350505050565b60006020820190506116c060008301846115d8565b92915050565b60006020820190506116db60008301846115e7565b92915050565b600060208201905081810360008301526116fb81846115f6565b905092915050565b6000602082019050611718600083018461162f565b92915050565b600081519050919050565b600082825260208201905092915050565b600061174582611858565b915061175083611858565b9250827fffffffffffffffffffffffffffffffffffffffffffffffffffffffffffffffff03821115611785576117846118d9565b5b828201905092915050565b600061179b82611858565b91506117a683611858565b9250826117b6576117b5611908565b5b828204905092915050565b60006117cc82611858565b91506117d783611858565b9250828210156117ea576117e96118d9565b5b828203905092915050565b600061180082611838565b9050919050565b600061181282611838565b9050919050565b60008115159050919050565b6000819050611833826119a6565b919050565b600073ffffffffffffffffffffffffffffffffffffffff82169050919050565b6000819050919050565b600061186d82611825565b9050919050565b60005b83811015611892578082015181840152602081019050611877565b838111156118a1576000848401525b50505050565b600060028204905060018216806118bf57607f821691505b602082108114156118d3576118d2611966565b5b50919050565b7f4e487b7100000000000000000000000000000000000000000000000000000000600052601160045260246000fd5b7f4e487b7100000000000000000000000000000000000000000000000000000000600052601260045260246000fd5b7f4e487b7100000000000000000000000000000000000000000000000000000000600052602160045260246000fd5b7f4e487b7100000000000000000000000000000000000000000000000000000000600052602260045260246000fd5b6000601f19601f8301169050919050565b600481106119b7576119b6611937565b5b50565b6119c3816117f5565b81146119ce57600080fd5b50565b6119da81611807565b81146119e557600080fd5b50565b6119f181611858565b81146119fc57600080fd5b5056fea2646970667358221220aa7343be487b9f560dbd07fdfbb7c23a99e6d8701f76a39aa3c24bb3ec5e520b64736f6c63430008000033",
  "immutableReferences": {},
  "source": "//SPDX-License-Identifier: GPL-3.0\r\n\r\npragma solidity ^0.8.0;\r\n\r\nimport \"./ZCC.sol\";\r\n\r\n// deployed at 0x54c77F7b5c329D7ec7eDd3005DEf3d30B086a20e (Ropsten)\r\n\r\ncontract ICO is ZrinCinCoin {\r\n    address public manager;\r\n    address payable public deposit;\r\n    \r\n    uint tokenPrice = 0.01 ether;  \r\n    uint public goal = 10000 ether; // 100% of the total supply\r\n    uint public raisedAmount; \r\n    uint public saleStart = block.timestamp;\r\n    uint public saleEnd = block.timestamp + 259200;    \r\n    uint public minInvestment = 0.1 ether;\r\n    uint public maxInvestment = 5 ether;\r\n    \r\n    uint public tokenTradeStart = saleEnd + 864000; \r\n\r\n    \r\n    enum State { NOT_STARTED, RUNNING, ENDED, SUSPENDED} \r\n    State public ICOState;\r\n\r\n    modifier managerOnly() {\r\n        require(msg.sender == manager);\r\n        _;\r\n    }\r\n\r\n    constructor(address payable _deposit) {\r\n        deposit = _deposit;\r\n        manager = msg.sender;\r\n        ICOState = State.NOT_STARTED;\r\n    }\r\n\r\n    receive() payable external {\r\n        invest();\r\n    }\r\n\r\n    event Invest(address _investor, uint _value, uint _tokens);\r\n\r\n    function invest() payable public returns (bool) { \r\n        ICOState = getCurrentState();\r\n        require(ICOState == State.RUNNING);\r\n        require(msg.value >= minInvestment && msg.value <= maxInvestment);\r\n        \r\n        raisedAmount += msg.value;\r\n        require(raisedAmount <= goal);\r\n        \r\n        uint tokens = msg.value / tokenPrice;\r\n \r\n      \r\n        balances[msg.sender] += tokens;\r\n        balances[creator] -= tokens; \r\n        deposit.transfer(msg.value); \r\n        \r\n        emit Invest(msg.sender, msg.value, tokens);\r\n        \r\n        return true;\r\n    }\r\n\r\n    function transfer(address _to, uint _tokens) public override returns (bool success) {\r\n        require(block.timestamp > tokenTradeStart);\r\n     \r\n        ZrinCinCoin.transfer(_to, _tokens); \r\n        \r\n        return true;\r\n    }\r\n\r\n    function transferFrom(address _from, address _to, uint _tokens) public override returns (bool success) {\r\n        require(block.timestamp > tokenTradeStart); \r\n       \r\n        ZrinCinCoin.transferFrom(_from, _to, _tokens); \r\n\r\n        return true;\r\n    }\r\n\r\n    function getCurrentState() public view returns (State) {\r\n        if (ICOState == State.SUSPENDED){\r\n            return State.SUSPENDED;\r\n        } else if (block.timestamp < saleStart) {\r\n            return State.NOT_STARTED;\r\n        } else if (block.timestamp >= saleStart && block.timestamp <= saleEnd) {\r\n            return State.RUNNING;\r\n        } else {\r\n            return State.ENDED;\r\n        }\r\n    }\r\n\r\n    function stopICO() public managerOnly {\r\n        ICOState = State.SUSPENDED;\r\n    }\r\n\r\n    function resumeICO() public managerOnly {\r\n        ICOState = State.RUNNING;\r\n    }\r\n\r\n    function changeDepositAddress(address payable _newDeposit) public managerOnly {\r\n        deposit = _newDeposit;\r\n    }\r\n\r\n     function burnTokens() public returns (bool) {\r\n        ICOState = getCurrentState();\r\n        require(ICOState == State.ENDED);\r\n        \r\n        balances[creator] = 0;\r\n        \r\n        return true;\r\n    }\r\n}",
  "sourcePath": "C:/Users/zrinc/Projects/ICO/contracts/ICO.sol",
  "compiler": {
    "name": "solc",
    "version": "0.8.0+commit.c7dfd78e.Emscripten.clang"
  },
  "schemaVersion": "3.4.1",
  "updatedAt": "2021-11-01T11:55:18.592Z",
  "networkType": "ethereum",
  "devdoc": {
    "kind": "dev",
    "methods": {},
    "version": 1
  },
  "userdoc": {
    "kind": "user",
    "methods": {},
    "version": 1
  }
}