{
  "contractName": "ZrinCinCoin",
  "abi": [
    {
      "inputs": [],
      "stateMutability": "nonpayable",
      "type": "constructor"
    },
    {
      "anonymous": false,
      "inputs": [
        {
          "indexed": true,
          "internalType": "address",
          "name": "_tokenOwner",
          "type": "address"
        },
        {
          "indexed": true,
          "internalType": "address",
          "name": "_spender",
          "type": "address"
        },
        {
          "indexed": false,
          "internalType": "uint256",
          "name": "_tokens",
          "type": "uint256"
        }
      ],
      "name": "Approval",
      "type": "event"
    },
    {
      "anonymous": false,
      "inputs": [
        {
          "indexed": true,
          "internalType": "address",
          "name": "_from",
          "type": "address"
        },
        {
          "indexed": true,
          "internalType": "address",
          "name": "_to",
          "type": "address"
        },
        {
          "indexed": false,
          "internalType": "uint256",
          "name": "_tokens",
          "type": "uint256"
        }
      ],
      "name": "Transfer",
      "type": "event"
    },
    {
      "inputs": [],
      "name": "creator",
      "outputs": [
        {
          "internalType": "address",
          "name": "",
          "type": "address"
        }
      ],
      "stateMutability": "view",
      "type": "function"
    },
    {
      "inputs": [],
      "name": "decimals",
      "outputs": [
        {
          "internalType": "uint256",
          "name": "",
          "type": "uint256"
        }
      ],
      "stateMutability": "view",
      "type": "function"
    },
    {
      "inputs": [],
      "name": "name",
      "outputs": [
        {
          "internalType": "string",
          "name": "",
          "type": "string"
        }
      ],
      "stateMutability": "view",
      "type": "function"
    },
    {
      "inputs": [],
      "name": "symbol",
      "outputs": [
        {
          "internalType": "string",
          "name": "",
          "type": "string"
        }
      ],
      "stateMutability": "view",
      "type": "function"
    },
    {
      "inputs": [],
      "name": "totalSupply",
      "outputs": [
        {
          "internalType": "uint256",
          "name": "",
          "type": "uint256"
        }
      ],
      "stateMutability": "view",
      "type": "function"
    },
    {
      "inputs": [
        {
          "internalType": "address",
          "name": "_tokenOwner",
          "type": "address"
        }
      ],
      "name": "balanceOf",
      "outputs": [
        {
          "internalType": "uint256",
          "name": "balance",
          "type": "uint256"
        }
      ],
      "stateMutability": "view",
      "type": "function"
    },
    {
      "inputs": [
        {
          "internalType": "address",
          "name": "_to",
          "type": "address"
        },
        {
          "internalType": "uint256",
          "name": "_tokens",
          "type": "uint256"
        }
      ],
      "name": "transfer",
      "outputs": [
        {
          "internalType": "bool",
          "name": "success",
          "type": "bool"
        }
      ],
      "stateMutability": "nonpayable",
      "type": "function"
    },
    {
      "inputs": [
        {
          "internalType": "address",
          "name": "_tokenOwner",
          "type": "address"
        },
        {
          "internalType": "address",
          "name": "_spender",
          "type": "address"
        }
      ],
      "name": "allowance",
      "outputs": [
        {
          "internalType": "uint256",
          "name": "remaining",
          "type": "uint256"
        }
      ],
      "stateMutability": "view",
      "type": "function"
    },
    {
      "inputs": [
        {
          "internalType": "address",
          "name": "_spender",
          "type": "address"
        },
        {
          "internalType": "uint256",
          "name": "_tokens",
          "type": "uint256"
        }
      ],
      "name": "approve",
      "outputs": [
        {
          "internalType": "bool",
          "name": "success",
          "type": "bool"
        }
      ],
      "stateMutability": "nonpayable",
      "type": "function"
    },
    {
      "inputs": [
        {
          "internalType": "address",
          "name": "_from",
          "type": "address"
        },
        {
          "internalType": "address",
          "name": "_to",
          "type": "address"
        },
        {
          "internalType": "uint256",
          "name": "_tokens",
          "type": "uint256"
        }
      ],
      "name": "transferFrom",
      "outputs": [
        {
          "internalType": "bool",
          "name": "success",
          "type": "bool"
        }
      ],
      "stateMutability": "nonpayable",
      "type": "function"
    }
  ],
  "bytecode": "0x608060405264174876e800600055600560015534801561001e57600080fd5b5033600260006101000a81548173ffffffffffffffffffffffffffffffffffffffff021916908373ffffffffffffffffffffffffffffffffffffffff16021790555060005460036000600260009054906101000a900473ffffffffffffffffffffffffffffffffffffffff1673ffffffffffffffffffffffffffffffffffffffff1673ffffffffffffffffffffffffffffffffffffffff16815260200190815260200160002081905550610c7f806100d76000396000f3fe608060405234801561001057600080fd5b506004361061009e5760003560e01c8063313ce56711610066578063313ce5671461015d57806370a082311461017b57806395d89b41146101ab578063a9059cbb146101c9578063dd62ed3e146101f95761009e565b806302d05d3f146100a357806306fdde03146100c1578063095ea7b3146100df57806318160ddd1461010f57806323b872dd1461012d575b600080fd5b6100ab610229565b6040516100b89190610a47565b60405180910390f35b6100c961024f565b6040516100d69190610a7d565b60405180910390f35b6100f960048036038101906100f491906109a5565b610288565b6040516101069190610a62565b60405180910390f35b6101176103c0565b6040516101249190610a9f565b60405180910390f35b61014760048036038101906101429190610956565b6103c9565b6040516101549190610a62565b60405180910390f35b61016561064f565b6040516101729190610a9f565b60405180910390f35b610195600480360381019061019091906108f1565b610655565b6040516101a29190610a9f565b60405180910390f35b6101b361069e565b6040516101c09190610a7d565b60405180910390f35b6101e360048036038101906101de91906109a5565b6106d7565b6040516101f09190610a62565b60405180910390f35b610213600480360381019061020e919061091a565b610840565b6040516102209190610a9f565b60405180910390f35b600260009054906101000a900473ffffffffffffffffffffffffffffffffffffffff1681565b6040518060400160405280600b81526020017f5a72696e43696e436f696e00000000000000000000000000000000000000000081525081565b60003373ffffffffffffffffffffffffffffffffffffffff168373ffffffffffffffffffffffffffffffffffffffff1614156102c357600080fd5b600082116102d057600080fd5b81600460003373ffffffffffffffffffffffffffffffffffffffff1673ffffffffffffffffffffffffffffffffffffffff16815260200190815260200160002060008573ffffffffffffffffffffffffffffffffffffffff1673ffffffffffffffffffffffffffffffffffffffff168152602001908152602001600020819055508273ffffffffffffffffffffffffffffffffffffffff163373ffffffffffffffffffffffffffffffffffffffff167f8c5be1e5ebec7d5bd14f71427d1e84f3dd0314c0f7b2291e5b200ac8c7c3b925846040516103ae9190610a9f565b60405180910390a36001905092915050565b60008054905090565b600081600360008673ffffffffffffffffffffffffffffffffffffffff1673ffffffffffffffffffffffffffffffffffffffff16815260200190815260200160002054101561041757600080fd5b81600460008673ffffffffffffffffffffffffffffffffffffffff1673ffffffffffffffffffffffffffffffffffffffff16815260200190815260200160002060003373ffffffffffffffffffffffffffffffffffffffff1673ffffffffffffffffffffffffffffffffffffffff1681526020019081526020016000205410156104a057600080fd5b81600360008673ffffffffffffffffffffffffffffffffffffffff1673ffffffffffffffffffffffffffffffffffffffff16815260200190815260200160002060008282546104ef9190610b2c565b9250508190555081600360008573ffffffffffffffffffffffffffffffffffffffff1673ffffffffffffffffffffffffffffffffffffffff16815260200190815260200160002060008282546105459190610ad6565b9250508190555081600460008673ffffffffffffffffffffffffffffffffffffffff1673ffffffffffffffffffffffffffffffffffffffff16815260200190815260200160002060003373ffffffffffffffffffffffffffffffffffffffff1673ffffffffffffffffffffffffffffffffffffffff16815260200190815260200160002060008282546105d89190610b2c565b925050819055508273ffffffffffffffffffffffffffffffffffffffff163373ffffffffffffffffffffffffffffffffffffffff167fddf252ad1be2c89b69c2b068fc378daa952ba7f163c4a11628f55a4df523b3ef8460405161063c9190610a9f565b60405180910390a3600190509392505050565b60015481565b6000600360008373ffffffffffffffffffffffffffffffffffffffff1673ffffffffffffffffffffffffffffffffffffffff168152602001908152602001600020549050919050565b6040518060400160405280600381526020017f5a4343000000000000000000000000000000000000000000000000000000000081525081565b600081600360003373ffffffffffffffffffffffffffffffffffffffff1673ffffffffffffffffffffffffffffffffffffffff16815260200190815260200160002054101561072557600080fd5b81600360003373ffffffffffffffffffffffffffffffffffffffff1673ffffffffffffffffffffffffffffffffffffffff16815260200190815260200160002060008282546107749190610b2c565b9250508190555081600360008573ffffffffffffffffffffffffffffffffffffffff1673ffffffffffffffffffffffffffffffffffffffff16815260200190815260200160002060008282546107ca9190610ad6565b925050819055508273ffffffffffffffffffffffffffffffffffffffff163373ffffffffffffffffffffffffffffffffffffffff167fddf252ad1be2c89b69c2b068fc378daa952ba7f163c4a11628f55a4df523b3ef8460405161082e9190610a9f565b60405180910390a36001905092915050565b6000600460008473ffffffffffffffffffffffffffffffffffffffff1673ffffffffffffffffffffffffffffffffffffffff16815260200190815260200160002060008373ffffffffffffffffffffffffffffffffffffffff1673ffffffffffffffffffffffffffffffffffffffff16815260200190815260200160002054905092915050565b6000813590506108d681610c1b565b92915050565b6000813590506108eb81610c32565b92915050565b60006020828403121561090357600080fd5b6000610911848285016108c7565b91505092915050565b6000806040838503121561092d57600080fd5b600061093b858286016108c7565b925050602061094c858286016108c7565b9150509250929050565b60008060006060848603121561096b57600080fd5b6000610979868287016108c7565b935050602061098a868287016108c7565b925050604061099b868287016108dc565b9150509250925092565b600080604083850312156109b857600080fd5b60006109c6858286016108c7565b92505060206109d7858286016108dc565b9150509250929050565b6109ea81610b60565b82525050565b6109f981610b72565b82525050565b6000610a0a82610aba565b610a148185610ac5565b9350610a24818560208601610ba8565b610a2d81610c0a565b840191505092915050565b610a4181610b9e565b82525050565b6000602082019050610a5c60008301846109e1565b92915050565b6000602082019050610a7760008301846109f0565b92915050565b60006020820190508181036000830152610a9781846109ff565b905092915050565b6000602082019050610ab46000830184610a38565b92915050565b600081519050919050565b600082825260208201905092915050565b6000610ae182610b9e565b9150610aec83610b9e565b9250827fffffffffffffffffffffffffffffffffffffffffffffffffffffffffffffffff03821115610b2157610b20610bdb565b5b828201905092915050565b6000610b3782610b9e565b9150610b4283610b9e565b925082821015610b5557610b54610bdb565b5b828203905092915050565b6000610b6b82610b7e565b9050919050565b60008115159050919050565b600073ffffffffffffffffffffffffffffffffffffffff82169050919050565b6000819050919050565b60005b83811015610bc6578082015181840152602081019050610bab565b83811115610bd5576000848401525b50505050565b7f4e487b7100000000000000000000000000000000000000000000000000000000600052601160045260246000fd5b6000601f19601f8301169050919050565b610c2481610b60565b8114610c2f57600080fd5b50565b610c3b81610b9e565b8114610c4657600080fd5b5056fea26469706673582212204a81e4798fad11e426fec0e47c17f05ef8134b34156f4e6372e87342513c35be64736f6c63430008000033",
  "immutableReferences": {},
  "source": "//SPDX-License-Identifier: GPL-3.0\r\n\r\npragma solidity ^0.8.0;\r\n\r\nimport \"./IERC20.sol\";\r\n\r\n\r\ncontract ZrinCinCoin is IERC20 {\r\n\r\n    string public constant name = \"ZrinCinCoin\";\r\n    string public constant symbol = \"ZCC\";\r\n    uint tokenTotalSupply = 100000000000; // 1 million tokens (with 5 decimals)\r\n    uint public decimals = 5;\r\n   \r\n    address public creator;\r\n    mapping(address => uint) balances;\r\n    mapping(address => mapping(address => uint)) allowances;\r\n\r\n    constructor() {\r\n        creator = msg.sender;\r\n        balances[creator] = tokenTotalSupply;\r\n    }\r\n    \r\n    function totalSupply() public view override returns (uint) {\r\n        return tokenTotalSupply;\r\n    }\r\n\r\n    function balanceOf(address _tokenOwner) public view override returns (uint balance) {\r\n        return balances[_tokenOwner];\r\n    }\r\n\r\n    function transfer(address _to, uint _tokens) public virtual override returns (bool success) {\r\n        require(balances[msg.sender] >= _tokens);\r\n\r\n        balances[msg.sender] -= _tokens;\r\n        balances[_to] += _tokens;\r\n\r\n        emit Transfer(msg.sender, _to, _tokens);\r\n\r\n        return true;\r\n    }\r\n\r\n    function allowance(address _tokenOwner, address _spender) public view override returns (uint remaining) {\r\n        return allowances[_tokenOwner][_spender];\r\n    }\r\n\r\n    function approve(address _spender, uint _tokens) public override returns (bool success) {\r\n        require(_spender != msg.sender);\r\n        require(_tokens > 0);\r\n\r\n        allowances[msg.sender][_spender] = _tokens;\r\n\r\n        emit Approval(msg.sender, _spender, _tokens);\r\n\r\n        return true;\r\n    }\r\n\r\n    function transferFrom(address _from, address _to, uint _tokens) public virtual override returns (bool success) {\r\n        require(balances[_from] >= _tokens);\r\n        require(allowances[_from][msg.sender] >= _tokens);\r\n\r\n        balances[_from] -= _tokens;\r\n        balances[_to] += _tokens;\r\n        allowances[_from][msg.sender] -= _tokens;\r\n\r\n        emit Transfer(msg.sender, _to, _tokens);\r\n\r\n        return true;\r\n    }\r\n}",
  "sourcePath": "C:/Users/zrinc/Projects/ICO/contracts/ZCC.sol",
  "compiler": {
    "name": "solc",
    "version": "0.8.0+commit.c7dfd78e.Emscripten.clang"
  },
  "schemaVersion": "3.4.1",
  "updatedAt": "2021-12-15T13:00:42.839Z",
  "devdoc": {
    "kind": "dev",
    "methods": {},
    "version": 1
  },
  "userdoc": {
    "kind": "user",
    "methods": {},
    "version": 1
  }
}