{
  "contractName": "ZrinCinCoin",
  "abi": [
    {
      "inputs": [],
      "stateMutability": "nonpayable",
      "type": "constructor"
    },
    {
      "anonymous": false,
      "inputs": [
        {
          "indexed": true,
          "internalType": "address",
          "name": "tokenOwner",
          "type": "address"
        },
        {
          "indexed": true,
          "internalType": "address",
          "name": "spender",
          "type": "address"
        },
        {
          "indexed": false,
          "internalType": "uint256",
          "name": "tokens",
          "type": "uint256"
        }
      ],
      "name": "Approval",
      "type": "event"
    },
    {
      "anonymous": false,
      "inputs": [
        {
          "indexed": true,
          "internalType": "address",
          "name": "from",
          "type": "address"
        },
        {
          "indexed": true,
          "internalType": "address",
          "name": "to",
          "type": "address"
        },
        {
          "indexed": false,
          "internalType": "uint256",
          "name": "tokens",
          "type": "uint256"
        }
      ],
      "name": "Transfer",
      "type": "event"
    },
    {
      "inputs": [],
      "name": "creator",
      "outputs": [
        {
          "internalType": "address",
          "name": "",
          "type": "address"
        }
      ],
      "stateMutability": "view",
      "type": "function"
    },
    {
      "inputs": [],
      "name": "decimals",
      "outputs": [
        {
          "internalType": "uint256",
          "name": "",
          "type": "uint256"
        }
      ],
      "stateMutability": "view",
      "type": "function"
    },
    {
      "inputs": [],
      "name": "name",
      "outputs": [
        {
          "internalType": "string",
          "name": "",
          "type": "string"
        }
      ],
      "stateMutability": "view",
      "type": "function"
    },
    {
      "inputs": [],
      "name": "symbol",
      "outputs": [
        {
          "internalType": "string",
          "name": "",
          "type": "string"
        }
      ],
      "stateMutability": "view",
      "type": "function"
    },
    {
      "inputs": [],
      "name": "tokenTotalSupply",
      "outputs": [
        {
          "internalType": "uint256",
          "name": "",
          "type": "uint256"
        }
      ],
      "stateMutability": "view",
      "type": "function"
    },
    {
      "inputs": [],
      "name": "totalSupply",
      "outputs": [
        {
          "internalType": "uint256",
          "name": "",
          "type": "uint256"
        }
      ],
      "stateMutability": "view",
      "type": "function"
    },
    {
      "inputs": [
        {
          "internalType": "address",
          "name": "_tokenOwner",
          "type": "address"
        }
      ],
      "name": "balanceOf",
      "outputs": [
        {
          "internalType": "uint256",
          "name": "balance",
          "type": "uint256"
        }
      ],
      "stateMutability": "view",
      "type": "function"
    },
    {
      "inputs": [
        {
          "internalType": "address",
          "name": "_to",
          "type": "address"
        },
        {
          "internalType": "uint256",
          "name": "_tokens",
          "type": "uint256"
        }
      ],
      "name": "transfer",
      "outputs": [
        {
          "internalType": "bool",
          "name": "success",
          "type": "bool"
        }
      ],
      "stateMutability": "nonpayable",
      "type": "function"
    },
    {
      "inputs": [
        {
          "internalType": "address",
          "name": "_tokenOwner",
          "type": "address"
        },
        {
          "internalType": "address",
          "name": "_spender",
          "type": "address"
        }
      ],
      "name": "allowance",
      "outputs": [
        {
          "internalType": "uint256",
          "name": "remaining",
          "type": "uint256"
        }
      ],
      "stateMutability": "view",
      "type": "function"
    },
    {
      "inputs": [
        {
          "internalType": "address",
          "name": "_spender",
          "type": "address"
        },
        {
          "internalType": "uint256",
          "name": "_tokens",
          "type": "uint256"
        }
      ],
      "name": "approve",
      "outputs": [
        {
          "internalType": "bool",
          "name": "success",
          "type": "bool"
        }
      ],
      "stateMutability": "nonpayable",
      "type": "function"
    },
    {
      "inputs": [
        {
          "internalType": "address",
          "name": "_from",
          "type": "address"
        },
        {
          "internalType": "address",
          "name": "_to",
          "type": "address"
        },
        {
          "internalType": "uint256",
          "name": "_tokens",
          "type": "uint256"
        }
      ],
      "name": "transferFrom",
      "outputs": [
        {
          "internalType": "bool",
          "name": "success",
          "type": "bool"
        }
      ],
      "stateMutability": "nonpayable",
      "type": "function"
    }
  ],
  "bytecode": "0x60806040526040518060400160405280600b81526020017f5a72696e43696e436f696e00000000000000000000000000000000000000000081525060009080519060200190620000519291906200016c565b506040518060400160405280600381526020017f5a43430000000000000000000000000000000000000000000000000000000000815250600190805190602001906200009f9291906200016c565b506005600255348015620000b257600080fd5b50620f424060038190555033600460006101000a81548173ffffffffffffffffffffffffffffffffffffffff021916908373ffffffffffffffffffffffffffffffffffffffff16021790555060035460056000600460009054906101000a900473ffffffffffffffffffffffffffffffffffffffff1673ffffffffffffffffffffffffffffffffffffffff1673ffffffffffffffffffffffffffffffffffffffff1681526020019081526020016000208190555062000281565b8280546200017a906200021c565b90600052602060002090601f0160209004810192826200019e5760008555620001ea565b82601f10620001b957805160ff1916838001178555620001ea565b82800160010185558215620001ea579182015b82811115620001e9578251825591602001919060010190620001cc565b5b509050620001f99190620001fd565b5090565b5b8082111562000218576000816000905550600101620001fe565b5090565b600060028204905060018216806200023557607f821691505b602082108114156200024c576200024b62000252565b5b50919050565b7f4e487b7100000000000000000000000000000000000000000000000000000000600052602260045260246000fd5b610d6780620002916000396000f3fe608060405234801561001057600080fd5b50600436106100a95760003560e01c8063313ce56711610071578063313ce5671461016857806370a082311461018657806395d89b41146101b6578063a9059cbb146101d4578063dd62ed3e14610204578063f7abab9e14610234576100a9565b806302d05d3f146100ae57806306fdde03146100cc578063095ea7b3146100ea57806318160ddd1461011a57806323b872dd14610138575b600080fd5b6100b6610252565b6040516100c39190610ace565b60405180910390f35b6100d4610278565b6040516100e19190610b04565b60405180910390f35b61010460048036038101906100ff9190610a2c565b610306565b6040516101119190610ae9565b60405180910390f35b610122610450565b60405161012f9190610b26565b60405180910390f35b610152600480360381019061014d91906109dd565b61045a565b60405161015f9190610ae9565b60405180910390f35b61017061067b565b60405161017d9190610b26565b60405180910390f35b6101a0600480360381019061019b9190610978565b610681565b6040516101ad9190610b26565b60405180910390f35b6101be6106ca565b6040516101cb9190610b04565b60405180910390f35b6101ee60048036038101906101e99190610a2c565b610758565b6040516101fb9190610ae9565b60405180910390f35b61021e600480360381019061021991906109a1565b6108c1565b60405161022b9190610b26565b60405180910390f35b61023c610948565b6040516102499190610b26565b60405180910390f35b600460009054906101000a900473ffffffffffffffffffffffffffffffffffffffff1681565b6000805461028590610c62565b80601f01602080910402602001604051908101604052809291908181526020018280546102b190610c62565b80156102fe5780601f106102d3576101008083540402835291602001916102fe565b820191906000526020600020905b8154815290600101906020018083116102e157829003601f168201915b505050505081565b600080821161031457600080fd5b81600560003373ffffffffffffffffffffffffffffffffffffffff1673ffffffffffffffffffffffffffffffffffffffff16815260200190815260200160002054101561036057600080fd5b81600660003373ffffffffffffffffffffffffffffffffffffffff1673ffffffffffffffffffffffffffffffffffffffff16815260200190815260200160002060008573ffffffffffffffffffffffffffffffffffffffff1673ffffffffffffffffffffffffffffffffffffffff168152602001908152602001600020819055508273ffffffffffffffffffffffffffffffffffffffff163373ffffffffffffffffffffffffffffffffffffffff167f8c5be1e5ebec7d5bd14f71427d1e84f3dd0314c0f7b2291e5b200ac8c7c3b9258460405161043e9190610b26565b60405180910390a36001905092915050565b6000600354905090565b600081600560008673ffffffffffffffffffffffffffffffffffffffff1673ffffffffffffffffffffffffffffffffffffffff1681526020019081526020016000205410156104a857600080fd5b81600660008673ffffffffffffffffffffffffffffffffffffffff1673ffffffffffffffffffffffffffffffffffffffff16815260200190815260200160002060008573ffffffffffffffffffffffffffffffffffffffff1673ffffffffffffffffffffffffffffffffffffffff16815260200190815260200160002054101561053157600080fd5b81600560008673ffffffffffffffffffffffffffffffffffffffff1673ffffffffffffffffffffffffffffffffffffffff16815260200190815260200160002060008282546105809190610bb3565b9250508190555081600560008573ffffffffffffffffffffffffffffffffffffffff1673ffffffffffffffffffffffffffffffffffffffff16815260200190815260200160002060008282546105d69190610b5d565b9250508190555081600660008673ffffffffffffffffffffffffffffffffffffffff1673ffffffffffffffffffffffffffffffffffffffff16815260200190815260200160002060008573ffffffffffffffffffffffffffffffffffffffff1673ffffffffffffffffffffffffffffffffffffffff16815260200190815260200160002060008282546106699190610bb3565b92505081905550600190509392505050565b60025481565b6000600560008373ffffffffffffffffffffffffffffffffffffffff1673ffffffffffffffffffffffffffffffffffffffff168152602001908152602001600020549050919050565b600180546106d790610c62565b80601f016020809104026020016040519081016040528092919081815260200182805461070390610c62565b80156107505780601f1061072557610100808354040283529160200191610750565b820191906000526020600020905b81548152906001019060200180831161073357829003601f168201915b505050505081565b600081600560003373ffffffffffffffffffffffffffffffffffffffff1673ffffffffffffffffffffffffffffffffffffffff1681526020019081526020016000205410156107a657600080fd5b81600560003373ffffffffffffffffffffffffffffffffffffffff1673ffffffffffffffffffffffffffffffffffffffff16815260200190815260200160002060008282546107f59190610bb3565b9250508190555081600560008573ffffffffffffffffffffffffffffffffffffffff1673ffffffffffffffffffffffffffffffffffffffff168152602001908152602001600020600082825461084b9190610b5d565b925050819055508273ffffffffffffffffffffffffffffffffffffffff163373ffffffffffffffffffffffffffffffffffffffff167fddf252ad1be2c89b69c2b068fc378daa952ba7f163c4a11628f55a4df523b3ef846040516108af9190610b26565b60405180910390a36001905092915050565b6000600660008473ffffffffffffffffffffffffffffffffffffffff1673ffffffffffffffffffffffffffffffffffffffff16815260200190815260200160002060008373ffffffffffffffffffffffffffffffffffffffff1673ffffffffffffffffffffffffffffffffffffffff16815260200190815260200160002054905092915050565b60035481565b60008135905061095d81610d03565b92915050565b60008135905061097281610d1a565b92915050565b60006020828403121561098a57600080fd5b60006109988482850161094e565b91505092915050565b600080604083850312156109b457600080fd5b60006109c28582860161094e565b92505060206109d38582860161094e565b9150509250929050565b6000806000606084860312156109f257600080fd5b6000610a008682870161094e565b9350506020610a118682870161094e565b9250506040610a2286828701610963565b9150509250925092565b60008060408385031215610a3f57600080fd5b6000610a4d8582860161094e565b9250506020610a5e85828601610963565b9150509250929050565b610a7181610be7565b82525050565b610a8081610bf9565b82525050565b6000610a9182610b41565b610a9b8185610b4c565b9350610aab818560208601610c2f565b610ab481610cf2565b840191505092915050565b610ac881610c25565b82525050565b6000602082019050610ae36000830184610a68565b92915050565b6000602082019050610afe6000830184610a77565b92915050565b60006020820190508181036000830152610b1e8184610a86565b905092915050565b6000602082019050610b3b6000830184610abf565b92915050565b600081519050919050565b600082825260208201905092915050565b6000610b6882610c25565b9150610b7383610c25565b9250827fffffffffffffffffffffffffffffffffffffffffffffffffffffffffffffffff03821115610ba857610ba7610c94565b5b828201905092915050565b6000610bbe82610c25565b9150610bc983610c25565b925082821015610bdc57610bdb610c94565b5b828203905092915050565b6000610bf282610c05565b9050919050565b60008115159050919050565b600073ffffffffffffffffffffffffffffffffffffffff82169050919050565b6000819050919050565b60005b83811015610c4d578082015181840152602081019050610c32565b83811115610c5c576000848401525b50505050565b60006002820490506001821680610c7a57607f821691505b60208210811415610c8e57610c8d610cc3565b5b50919050565b7f4e487b7100000000000000000000000000000000000000000000000000000000600052601160045260246000fd5b7f4e487b7100000000000000000000000000000000000000000000000000000000600052602260045260246000fd5b6000601f19601f8301169050919050565b610d0c81610be7565b8114610d1757600080fd5b50565b610d2381610c25565b8114610d2e57600080fd5b5056fea2646970667358221220d947db6011e6d6bc939883aaf215eab7ed8c0c82e36c662c86b5d057e749daa664736f6c63430008000033",
  "immutableReferences": {},
  "source": "//SPDX-License-Identifier: GPL-3.0\r\n\r\npragma solidity ^0.8.0;\r\n\r\ninterface ERC20 {\r\n    function totalSupply() external view returns (uint);\r\n    function balanceOf(address _tokenOwner) external view returns (uint balance);\r\n    function transfer(address _to, uint _tokens) external returns (bool success);\r\n    function allowance(address _tokenOwner, address _spender) external view returns (uint remaining);\r\n    function approve(address _spender, uint _tokens) external returns (bool success);\r\n    function transferFrom(address _from, address _to, uint _tokens) external returns (bool success);\r\n    \r\n    event Transfer(address indexed from, address indexed to, uint tokens);\r\n    event Approval(address indexed tokenOwner, address indexed spender, uint tokens);\r\n}\r\n\r\n\r\ncontract ZrinCinCoin is ERC20 {\r\n\r\n    string public name = \"ZrinCinCoin\";\r\n    string public symbol = \"ZCC\";\r\n    uint public decimals = 5;\r\n    uint public tokenTotalSupply;\r\n\r\n    address public creator;\r\n    mapping(address => uint) balances;\r\n    mapping(address => mapping(address => uint)) allowances;\r\n\r\n\r\n    constructor() {\r\n        tokenTotalSupply = 1000000;\r\n        creator = msg.sender;\r\n        balances[creator] = tokenTotalSupply;\r\n    }\r\n    \r\n    function totalSupply() public view override returns (uint) {\r\n        return tokenTotalSupply;\r\n    }\r\n\r\n    function balanceOf(address _tokenOwner) public view override returns (uint balance) {\r\n        return balances[_tokenOwner];\r\n    }\r\n\r\n    function transfer(address _to, uint _tokens) public override returns (bool success) {\r\n        require(balances[msg.sender] >= _tokens);\r\n\r\n        balances[msg.sender] -= _tokens;\r\n        balances[_to] += _tokens;\r\n\r\n        emit Transfer(msg.sender, _to, _tokens);\r\n\r\n        return true;\r\n    }\r\n\r\n    function allowance(address _tokenOwner, address _spender) public view override returns (uint remaining) {\r\n        return allowances[_tokenOwner][_spender];\r\n    }\r\n\r\n    function approve(address _spender, uint _tokens) public override returns (bool success) {\r\n        require(_tokens > 0);\r\n        require(balances[msg.sender] >= _tokens);\r\n\r\n        allowances[msg.sender][_spender] = _tokens;\r\n\r\n        emit Approval(msg.sender, _spender, _tokens);\r\n\r\n        return true;\r\n    }\r\n\r\n    function transferFrom(address _from, address _to, uint _tokens) public override returns (bool success) {\r\n        require(balances[_from] >= _tokens);\r\n        require(allowances[_from][_to] >= _tokens);\r\n\r\n        balances[_from] -= _tokens;\r\n        balances[_to] += _tokens;\r\n        allowances[_from][_to] -= _tokens;\r\n\r\n        return true;\r\n    }\r\n\r\n}\r\n\r\n\r\n",
  "sourcePath": "C:/Users/zrinc/Projects/ICO/contracts/ICO.sol",
  "compiler": {
    "name": "solc",
    "version": "0.8.0+commit.c7dfd78e.Emscripten.clang"
  },
  "schemaVersion": "3.4.1",
  "updatedAt": "2021-10-07T01:48:16.602Z",
  "devdoc": {
    "kind": "dev",
    "methods": {},
    "version": 1
  },
  "userdoc": {
    "kind": "user",
    "methods": {},
    "version": 1
  }
}