{
  "contractName": "ZrinCinCoin",
  "abi": [
    {
      "inputs": [],
      "stateMutability": "nonpayable",
      "type": "constructor"
    },
    {
      "anonymous": false,
      "inputs": [
        {
          "indexed": true,
          "internalType": "address",
          "name": "_tokenOwner",
          "type": "address"
        },
        {
          "indexed": true,
          "internalType": "address",
          "name": "_spender",
          "type": "address"
        },
        {
          "indexed": false,
          "internalType": "uint256",
          "name": "_tokens",
          "type": "uint256"
        }
      ],
      "name": "Approval",
      "type": "event"
    },
    {
      "anonymous": false,
      "inputs": [
        {
          "indexed": true,
          "internalType": "address",
          "name": "_from",
          "type": "address"
        },
        {
          "indexed": true,
          "internalType": "address",
          "name": "_to",
          "type": "address"
        },
        {
          "indexed": false,
          "internalType": "uint256",
          "name": "_tokens",
          "type": "uint256"
        }
      ],
      "name": "Transfer",
      "type": "event"
    },
    {
      "inputs": [],
      "name": "creator",
      "outputs": [
        {
          "internalType": "address",
          "name": "",
          "type": "address"
        }
      ],
      "stateMutability": "view",
      "type": "function",
      "constant": true
    },
    {
      "inputs": [],
      "name": "decimals",
      "outputs": [
        {
          "internalType": "uint256",
          "name": "",
          "type": "uint256"
        }
      ],
      "stateMutability": "view",
      "type": "function",
      "constant": true
    },
    {
      "inputs": [],
      "name": "name",
      "outputs": [
        {
          "internalType": "string",
          "name": "",
          "type": "string"
        }
      ],
      "stateMutability": "view",
      "type": "function",
      "constant": true
    },
    {
      "inputs": [],
      "name": "symbol",
      "outputs": [
        {
          "internalType": "string",
          "name": "",
          "type": "string"
        }
      ],
      "stateMutability": "view",
      "type": "function",
      "constant": true
    },
    {
      "inputs": [],
      "name": "totalSupply",
      "outputs": [
        {
          "internalType": "uint256",
          "name": "",
          "type": "uint256"
        }
      ],
      "stateMutability": "view",
      "type": "function",
      "constant": true
    },
    {
      "inputs": [
        {
          "internalType": "address",
          "name": "_tokenOwner",
          "type": "address"
        }
      ],
      "name": "balanceOf",
      "outputs": [
        {
          "internalType": "uint256",
          "name": "balance",
          "type": "uint256"
        }
      ],
      "stateMutability": "view",
      "type": "function",
      "constant": true
    },
    {
      "inputs": [
        {
          "internalType": "address",
          "name": "_to",
          "type": "address"
        },
        {
          "internalType": "uint256",
          "name": "_tokens",
          "type": "uint256"
        }
      ],
      "name": "transfer",
      "outputs": [
        {
          "internalType": "bool",
          "name": "success",
          "type": "bool"
        }
      ],
      "stateMutability": "nonpayable",
      "type": "function"
    },
    {
      "inputs": [
        {
          "internalType": "address",
          "name": "_tokenOwner",
          "type": "address"
        },
        {
          "internalType": "address",
          "name": "_spender",
          "type": "address"
        }
      ],
      "name": "allowance",
      "outputs": [
        {
          "internalType": "uint256",
          "name": "remaining",
          "type": "uint256"
        }
      ],
      "stateMutability": "view",
      "type": "function",
      "constant": true
    },
    {
      "inputs": [
        {
          "internalType": "address",
          "name": "_spender",
          "type": "address"
        },
        {
          "internalType": "uint256",
          "name": "_tokens",
          "type": "uint256"
        }
      ],
      "name": "approve",
      "outputs": [
        {
          "internalType": "bool",
          "name": "success",
          "type": "bool"
        }
      ],
      "stateMutability": "nonpayable",
      "type": "function"
    },
    {
      "inputs": [
        {
          "internalType": "address",
          "name": "_from",
          "type": "address"
        },
        {
          "internalType": "address",
          "name": "_to",
          "type": "address"
        },
        {
          "internalType": "uint256",
          "name": "_tokens",
          "type": "uint256"
        }
      ],
      "name": "transferFrom",
      "outputs": [
        {
          "internalType": "bool",
          "name": "success",
          "type": "bool"
        }
      ],
      "stateMutability": "nonpayable",
      "type": "function"
    }
  ],
  "bytecode": "0x60806040526040518060400160405280600381526020017f5a43430000000000000000000000000000000000000000000000000000000000815250600090805190602001906200005192919062000120565b5060056001553480156200006457600080fd5b5064174876e80060028190555033600360006101000a81548173ffffffffffffffffffffffffffffffffffffffff021916908373ffffffffffffffffffffffffffffffffffffffff16021790555060025460046000600360009054906101000a900473ffffffffffffffffffffffffffffffffffffffff1673ffffffffffffffffffffffffffffffffffffffff1673ffffffffffffffffffffffffffffffffffffffff1681526020019081526020016000208190555062000235565b8280546200012e90620001d0565b90600052602060002090601f0160209004810192826200015257600085556200019e565b82601f106200016d57805160ff19168380011785556200019e565b828001600101855582156200019e579182015b828111156200019d57825182559160200191906001019062000180565b5b509050620001ad9190620001b1565b5090565b5b80821115620001cc576000816000905550600101620001b2565b5090565b60006002820490506001821680620001e957607f821691505b602082108114156200020057620001ff62000206565b5b50919050565b7f4e487b7100000000000000000000000000000000000000000000000000000000600052602260045260246000fd5b610ce380620002456000396000f3fe608060405234801561001057600080fd5b506004361061009e5760003560e01c8063313ce56711610066578063313ce5671461015d57806370a082311461017b57806395d89b41146101ab578063a9059cbb146101c9578063dd62ed3e146101f95761009e565b806302d05d3f146100a357806306fdde03146100c1578063095ea7b3146100df57806318160ddd1461010f57806323b872dd1461012d575b600080fd5b6100ab610229565b6040516100b89190610a4a565b60405180910390f35b6100c961024f565b6040516100d69190610a80565b60405180910390f35b6100f960048036038101906100f491906109a8565b610288565b6040516101069190610a65565b60405180910390f35b6101176103d2565b6040516101249190610aa2565b60405180910390f35b61014760048036038101906101429190610959565b6103dc565b6040516101549190610a65565b60405180910390f35b6101656105fd565b6040516101729190610aa2565b60405180910390f35b610195600480360381019061019091906108f4565b610603565b6040516101a29190610aa2565b60405180910390f35b6101b361064c565b6040516101c09190610a80565b60405180910390f35b6101e360048036038101906101de91906109a8565b6106da565b6040516101f09190610a65565b60405180910390f35b610213600480360381019061020e919061091d565b610843565b6040516102209190610aa2565b60405180910390f35b600360009054906101000a900473ffffffffffffffffffffffffffffffffffffffff1681565b6040518060400160405280600b81526020017f5a72696e43696e436f696e00000000000000000000000000000000000000000081525081565b600080821161029657600080fd5b81600460003373ffffffffffffffffffffffffffffffffffffffff1673ffffffffffffffffffffffffffffffffffffffff1681526020019081526020016000205410156102e257600080fd5b81600560003373ffffffffffffffffffffffffffffffffffffffff1673ffffffffffffffffffffffffffffffffffffffff16815260200190815260200160002060008573ffffffffffffffffffffffffffffffffffffffff1673ffffffffffffffffffffffffffffffffffffffff168152602001908152602001600020819055508273ffffffffffffffffffffffffffffffffffffffff163373ffffffffffffffffffffffffffffffffffffffff167f8c5be1e5ebec7d5bd14f71427d1e84f3dd0314c0f7b2291e5b200ac8c7c3b925846040516103c09190610aa2565b60405180910390a36001905092915050565b6000600254905090565b600081600460008673ffffffffffffffffffffffffffffffffffffffff1673ffffffffffffffffffffffffffffffffffffffff16815260200190815260200160002054101561042a57600080fd5b81600560008673ffffffffffffffffffffffffffffffffffffffff1673ffffffffffffffffffffffffffffffffffffffff16815260200190815260200160002060003373ffffffffffffffffffffffffffffffffffffffff1673ffffffffffffffffffffffffffffffffffffffff1681526020019081526020016000205410156104b357600080fd5b81600460008673ffffffffffffffffffffffffffffffffffffffff1673ffffffffffffffffffffffffffffffffffffffff16815260200190815260200160002060008282546105029190610b2f565b9250508190555081600460008573ffffffffffffffffffffffffffffffffffffffff1673ffffffffffffffffffffffffffffffffffffffff16815260200190815260200160002060008282546105589190610ad9565b9250508190555081600560008673ffffffffffffffffffffffffffffffffffffffff1673ffffffffffffffffffffffffffffffffffffffff16815260200190815260200160002060003373ffffffffffffffffffffffffffffffffffffffff1673ffffffffffffffffffffffffffffffffffffffff16815260200190815260200160002060008282546105eb9190610b2f565b92505081905550600190509392505050565b60015481565b6000600460008373ffffffffffffffffffffffffffffffffffffffff1673ffffffffffffffffffffffffffffffffffffffff168152602001908152602001600020549050919050565b6000805461065990610bde565b80601f016020809104026020016040519081016040528092919081815260200182805461068590610bde565b80156106d25780601f106106a7576101008083540402835291602001916106d2565b820191906000526020600020905b8154815290600101906020018083116106b557829003601f168201915b505050505081565b600081600460003373ffffffffffffffffffffffffffffffffffffffff1673ffffffffffffffffffffffffffffffffffffffff16815260200190815260200160002054101561072857600080fd5b81600460003373ffffffffffffffffffffffffffffffffffffffff1673ffffffffffffffffffffffffffffffffffffffff16815260200190815260200160002060008282546107779190610b2f565b9250508190555081600460008573ffffffffffffffffffffffffffffffffffffffff1673ffffffffffffffffffffffffffffffffffffffff16815260200190815260200160002060008282546107cd9190610ad9565b925050819055508273ffffffffffffffffffffffffffffffffffffffff163373ffffffffffffffffffffffffffffffffffffffff167fddf252ad1be2c89b69c2b068fc378daa952ba7f163c4a11628f55a4df523b3ef846040516108319190610aa2565b60405180910390a36001905092915050565b6000600560008473ffffffffffffffffffffffffffffffffffffffff1673ffffffffffffffffffffffffffffffffffffffff16815260200190815260200160002060008373ffffffffffffffffffffffffffffffffffffffff1673ffffffffffffffffffffffffffffffffffffffff16815260200190815260200160002054905092915050565b6000813590506108d981610c7f565b92915050565b6000813590506108ee81610c96565b92915050565b60006020828403121561090657600080fd5b6000610914848285016108ca565b91505092915050565b6000806040838503121561093057600080fd5b600061093e858286016108ca565b925050602061094f858286016108ca565b9150509250929050565b60008060006060848603121561096e57600080fd5b600061097c868287016108ca565b935050602061098d868287016108ca565b925050604061099e868287016108df565b9150509250925092565b600080604083850312156109bb57600080fd5b60006109c9858286016108ca565b92505060206109da858286016108df565b9150509250929050565b6109ed81610b63565b82525050565b6109fc81610b75565b82525050565b6000610a0d82610abd565b610a178185610ac8565b9350610a27818560208601610bab565b610a3081610c6e565b840191505092915050565b610a4481610ba1565b82525050565b6000602082019050610a5f60008301846109e4565b92915050565b6000602082019050610a7a60008301846109f3565b92915050565b60006020820190508181036000830152610a9a8184610a02565b905092915050565b6000602082019050610ab76000830184610a3b565b92915050565b600081519050919050565b600082825260208201905092915050565b6000610ae482610ba1565b9150610aef83610ba1565b9250827fffffffffffffffffffffffffffffffffffffffffffffffffffffffffffffffff03821115610b2457610b23610c10565b5b828201905092915050565b6000610b3a82610ba1565b9150610b4583610ba1565b925082821015610b5857610b57610c10565b5b828203905092915050565b6000610b6e82610b81565b9050919050565b60008115159050919050565b600073ffffffffffffffffffffffffffffffffffffffff82169050919050565b6000819050919050565b60005b83811015610bc9578082015181840152602081019050610bae565b83811115610bd8576000848401525b50505050565b60006002820490506001821680610bf657607f821691505b60208210811415610c0a57610c09610c3f565b5b50919050565b7f4e487b7100000000000000000000000000000000000000000000000000000000600052601160045260246000fd5b7f4e487b7100000000000000000000000000000000000000000000000000000000600052602260045260246000fd5b6000601f19601f8301169050919050565b610c8881610b63565b8114610c9357600080fd5b50565b610c9f81610ba1565b8114610caa57600080fd5b5056fea26469706673582212206ddd23baec190218f277b1aaec6fcc4333d6276aa07f867fffea75a9964c029264736f6c63430008000033",
  "immutableReferences": {},
  "source": "//SPDX-License-Identifier: GPL-3.0\r\n\r\npragma solidity ^0.8.0;\r\n\r\nimport \"./IERC20.sol\";\r\n\r\n// deployed at 0x23bA238a1e52a3dFD204069cb1e9027fcBeB40Ba (Ropsten)\r\n\r\ncontract ZrinCinCoin is ERC20 {\r\n\r\n    string public constant name = \"ZrinCinCoin\";\r\n    string public symbol = \"ZCC\";\r\n    uint public decimals = 5;\r\n    uint tokenTotalSupply;\r\n\r\n    address public creator;\r\n    mapping(address => uint) balances;\r\n    mapping(address => mapping(address => uint)) allowances;\r\n\r\n\r\n    constructor() {\r\n        tokenTotalSupply = 100000000000; // 1 million tokens (with 5 decimals)\r\n        creator = msg.sender;\r\n        balances[creator] = tokenTotalSupply;\r\n    }\r\n    \r\n    function totalSupply() public view override returns (uint) {\r\n        return tokenTotalSupply;\r\n    }\r\n\r\n    function balanceOf(address _tokenOwner) public view override returns (uint balance) {\r\n        return balances[_tokenOwner];\r\n    }\r\n\r\n    function transfer(address _to, uint _tokens) public virtual override returns (bool success) {\r\n        require(balances[msg.sender] >= _tokens);\r\n\r\n        balances[msg.sender] -= _tokens;\r\n        balances[_to] += _tokens;\r\n\r\n        emit Transfer(msg.sender, _to, _tokens);\r\n\r\n        return true;\r\n    }\r\n\r\n    function allowance(address _tokenOwner, address _spender) public view override returns (uint remaining) {\r\n        return allowances[_tokenOwner][_spender];\r\n    }\r\n\r\n    function approve(address _spender, uint _tokens) public override returns (bool success) {\r\n        require(_tokens > 0);\r\n        require(balances[msg.sender] >= _tokens);\r\n\r\n        allowances[msg.sender][_spender] = _tokens;\r\n\r\n        emit Approval(msg.sender, _spender, _tokens);\r\n\r\n        return true;\r\n    }\r\n\r\n    function transferFrom(address _from, address _to, uint _tokens) public virtual override returns (bool success) {\r\n        require(balances[_from] >= _tokens);\r\n        require(allowances[_from][msg.sender] >= _tokens);\r\n\r\n        balances[_from] -= _tokens;\r\n        balances[_to] += _tokens;\r\n        allowances[_from][msg.sender] -= _tokens;\r\n\r\n        return true;\r\n    }\r\n\r\n}\r\n",
  "sourcePath": "C:/Users/zrinc/Projects/ICO/contracts/ZCC.sol",
  "compiler": {
    "name": "solc",
    "version": "0.8.0+commit.c7dfd78e.Emscripten.clang"
  },
  "schemaVersion": "3.4.1",
  "updatedAt": "2021-11-01T11:50:53.004Z",
  "networkType": "ethereum",
  "devdoc": {
    "kind": "dev",
    "methods": {},
    "version": 1
  },
  "userdoc": {
    "kind": "user",
    "methods": {},
    "version": 1
  }
}